:10000000E05700205985000023CD020089850000BB
:1000100089850000898500008985000000000000B6
:100020000000000000000000000000007D820000D1
:100030008985000000000000298200004DBB0200FD
:1000400019850000892E020019850000198500001D
:100050001985000019850000198500001985000028
:100060001985000019850000198500001985000018
:100070001985000019850000198500001985000008
:1000800019850000198500001985000019850000F8
:1000900019850000198500001985000019850000E8
:1000A00019850000198500001985000019850000D8
:1000B00019850000198500001985000019850000C8
:1000C00019850000198500001985000019850000B8
:0C00D0001985000019850000198500004A
:0400DC00FFFFFFFF24
:1000E00081F0004102E000BF83F0004330B54FEAE9
:1000F00041044FEA430594EA050F08BF90EA020F56
:100100001FBF54EA000C55EA020C7FEA645C7FEAE8
:10011000655C00F0E2804FEA5454D4EB5555B8BF0B
:100120006D420CDD2C4480EA020281EA030382EA7C
:10013000000083EA010180EA020281EA0303362D0E
:1001400088BF30BD11F0004F4FEA01314FF4801CE1
:100150004CEA113102D0404261EB410113F0004FF3
:100160004FEA03334CEA133302D0524263EB4303AA
:1001700094EA050F00F0A780A4F10104D5F1200E48
:100180000DDB02FA0EFC22FA05F2801841F10001A3
:1001900003FA0EF2801843FA05F359410EE0A5F177
:1001A00020050EF1200E012A03FA0EFC28BF4CF0A8
:1001B000020C43FA05F3C01851EBE37101F000455E
:1001C00007D54FF0000EDCF1000C7EEB00006EEB6B
:1001D0000101B1F5801F1BD3B1F5001F0CD34908F5
:1001E0005FEA30004FEA3C0C04F101044FEA44524C
:1001F00012F5800F80F09A80BCF1004F08BF5FEAD3
:10020000500C50F1000041EB045141EA050130BDB2
:100210005FEA4C0C404141EB010111F4801FA4F155
:100220000104E9D191F0000F04BF01460020B1FAAA
:1002300081F308BF2033A3F10B03B3F120020CDAE2
:100240000C3208DD02F1140CC2F10C0201FA0CF0C0
:1002500021FA02F10CE002F11402D8BFC2F1200C25
:1002600001FA02F120FA0CFCDCBF41EA0C019040DB
:10027000E41AA2BF01EB0451294330BD6FEA040424
:100280001F3C1CDA0C340EDC04F11404C4F120020F
:1002900020FA04F001FA02F340EA030021FA04F321
:1002A00045EA030130BDC4F10C04C4F1200220FA78
:1002B00002F001FA04F340EA0300294630BD21FAB6
:1002C00004F0294630BD94F0000F83F4801306BF7C
:1002D00081F480110134013D4EE77FEA645C18BF70
:1002E0007FEA655C29D094EA050F08BF90EA020F07
:1002F00005D054EA000C04BF1946104630BD91EAFF
:10030000030F1EBF0021002030BD5FEA545C05D101
:100310004000494128BF41F0004130BD14F5800440
:100320003CBF01F5801130BD01F0004545F0FE41B4
:1003300041F470014FF0000030BD7FEA645C1ABFE9
:10034000194610467FEA655C1CBF0B46024650EA20
:10035000013406BF52EA033591EA030F41F400214C
:1003600030BD00BF90F0000F04BF0021704730B5D2
:100370004FF4806404F132044FF000054FF00001A7
:1003800050E700BF90F0000F04BF0021704730B568
:100390004FF4806404F1320410F0004548BF40423D
:1003A0004FF000013EE700BF42004FEAE2014FEA92
:1003B00031014FEA02701FBF12F07F4393F07F4F6D
:1003C00081F06051704732F07F4208BF704793F070
:1003D0007F4F04BF41F40021704730B54FF4607483
:1003E00001F0004521F000411CE700BF50EA010286
:1003F00008BF704730B54FF000050AE050EA01022F
:1004000008BF704730B511F0004502D5404261EB9E
:1004100041014FF4806404F132045FEA915C3FF4DF
:10042000D8AE4FF003025FEADC0C18BF03325FEA7C
:10043000DC0C18BF033202EBDC02C2F1200300FA2D
:1004400003FC20FA02F001FA03FE40EA0E0021FA52
:1004500002F11444BDE600BF70B54FF0FF0C4CF440
:10046000E06C1CEA11541DBF1CEA135594EA0C0FF2
:1004700095EA0C0F00F0DEF82C4481EA030621EA2D
:100480004C5123EA4C5350EA013518BF52EA033568
:1004900041F4801143F4801338D0A0FB02CE4FF01A
:1004A0000005E1FB02E506F00042E0FB03E54FF04A
:1004B0000006E1FB03569CF0000F18BF4EF0010E42
:1004C000A4F1FF04B6F5007F64F5407404D25FEA3E
:1004D0004E0E6D4146EB060642EAC62141EA5551F1
:1004E0004FEAC52040EA5E504FEACE2EB4F1FD0C33
:1004F00088BFBCF5E06F1ED8BEF1004F08BF5FEAB1
:10050000500E50F1000041EB045170BD06F0004662
:1005100046EA010140EA020081EA0301B4EB5C040F
:10052000C2BFD4EB0C0541EA045170BD41F4801107
:100530004FF0000E013C00F3AB8014F1360FDEBF2C
:10054000002001F0004170BDC4F10004203C35DA08
:100550000C341BDC04F11404C4F1200500FA05F38B
:1005600020FA04F001FA05F240EA020001F000422C
:1005700021F0004110EBD37021FA04F642EB0601A2
:100580005EEA430E08BF20EAD37070BDC4F10C04CC
:10059000C4F1200500FA04F320FA05F001FA04F290
:1005A00040EA020001F0004110EBD37041F100017C
:1005B0005EEA430E08BF20EAD37070BDC4F1200587
:1005C00000FA05F24EEA020E20FA04F301FA05F2EF
:1005D00043EA020321FA04F001F0004121FA04F297
:1005E00020EA020000EBD3705EEA430E08BF20EA67
:1005F000D37070BD94F0000F0FD101F000464000A1
:1006000041EB010111F4801F08BF013CF7D041EA22
:10061000060195F0000F18BF704703F00046520026
:1006200043EB030313F4801F08BF013DF7D043EAF7
:100630000603704794EA0C0F0CEA135518BF95EAAD
:100640000C0F0CD050EA410618BF52EA4306D1D134
:1006500081EA030101F000414FF0000070BD50EA53
:10066000410606BF1046194652EA430619D094EADD
:100670000C0F02D150EA013613D195EA0C0F05D1C7
:1006800052EA03361CBF104619460AD181EA03011B
:1006900001F0004141F0FE4141F470014FF00000D3
:1006A00070BD41F0FE4141F4780170BD70B54FF06E
:1006B000FF0C4CF4E06C1CEA11541DBF1CEA1355EE
:1006C00094EA0C0F95EA0C0F00F0A7F8A4EB0504D0
:1006D00081EA030E52EA03354FEA013100F08880C7
:1006E0004FEA03334FF0805545EA131343EA126390
:1006F0004FEA022245EA111545EA10654FEA002645
:100700000EF000419D4208BF964244F1FD0404F5FD
:10071000407402D25B084FEA3202B61A65EB030559
:100720005B084FEA32024FF480104FF4002CB6EB16
:10073000020E75EB030E22BFB61A754640EA0C0096
:100740005B084FEA3202B6EB020E75EB030E22BFD6
:10075000B61A754640EA5C005B084FEA3202B6EB17
:10076000020E75EB030E22BFB61A754640EA9C00D6
:100770005B084FEA3202B6EB020E75EB030E22BFA6
:10078000B61A754640EADC0055EA060E18D04FEA64
:10079000051545EA16754FEA06164FEAC30343EA04
:1007A00052734FEAC2025FEA1C1CC0D111F4801FD1
:1007B0000BD141EA00014FF000004FF0004CB6E7CA
:1007C00011F4801F04BF01430020B4F1FD0C88BF69
:1007D000BCF5E06F3FF6AFAEB5EB030C04BFB6EB74
:1007E000020C5FEA500C50F1000041EB045170BD67
:1007F0000EF0004E4EEA113114EB5C04C2BFD4EB94
:100800000C0541EA045170BD41F480114FF0000E17
:10081000013C90E645EA060E8DE60CEA135594EA93
:100820000C0F08BF95EA0C0F3FF43BAF94EA0C0F96
:100830000AD150EA01347FF434AF95EA0C0F7FF40B
:1008400025AF104619462CE795EA0C0F06D152EA5F
:1008500003353FF4FDAE1046194622E750EA410643
:1008600018BF52EA43067FF4C5AE50EA41047FF454
:100870000DAF52EA43057FF4EBAE12E74FEA4102B7
:1008800012F5001215D211D56FF47873B3EB6252E2
:1008900012D94FEAC12343F0004343EA505311F009
:1008A000004F23FA02F018BF404270474FF000009B
:1008B000704750EA013005D111F0004008BF6FF0D9
:1008C000004070474FF00000704700BF53B94AB96D
:1008D000002908BF00281CBF4FF0FF314FF0FF3048
:1008E00000F086B9ADF1080C6DE904CE00F01AF8FD
:1008F000DDF804E0DDE9022304B07047430803F0AB
:100900005533C01A830803F0333300F033301844F2
:1009100000EB101000F00F3000EB002000EB004067
:10092000000E70472DE9F047089E04468846002BCC
:100930004BD18A42154667D9B2FA82F24AB1C2F166
:10094000200701FA02F320FA07F7954047EA030867
:1009500094404FEA154E230CB8FBFEF71FFA85FCB6
:100960000EFB178843EA084307FB0CF1994209D9AB
:10097000EB1807F1FF3080F01B81994240F218819B
:10098000023F2B445B1AA4B2B3FBFEF00EFB103304
:1009900044EA034400FB0CFCA44509D92C1900F1DE
:1009A000FF3380F00781A44540F2048102382C44D3
:1009B00040EA0740A4EB0C0400271EB1D4400023FA
:1009C000C6E900433946BDE8F0878B4209D9002EBD
:1009D00000F0EB800027C6E9000138463946BDE843
:1009E000F087B3FA83F7002F47D18B4202D38242BC
:1009F00000F2FA80841A61EB030301209846002E6E
:100A0000E0D0C6E90048DDE702B9FFDEB2FA82F2C3
:100A1000002A40F08F80491B4FEA154E1FFA85F8D7
:100A20000127B1FBFEFC230C0EFB1C1143EA014322
:100A300008FB0CF1994207D9EB180CF1FF3002D2F8
:100A4000994200F2CD808446591AA3B2B1FBFEF060
:100A50000EFB101443EA044408FB00F8A04507D934
:100A60002C1900F1FF3302D2A04500F2B6801846DF
:100A7000A4EB080440EA0C409FE7C7F1200CBB4000
:100A800022FA0CFE4EEA030E01FA07F420FA0CF5E6
:100A900021FA0CF34FEA1E482543B3FBF8F92C0C5E
:100AA00008FB19331FFA8EFA44EA034309FB0AF4E0
:100AB0009C4202FA07F200FA07F10BD91EEB03037E
:100AC00009F1FF3080F087809C4240F28480A9F1D8
:100AD000020973441B1BADB2B3FBF8F008FB1033E3
:100AE00045EA034400FB0AFAA24508D91EEB0404B8
:100AF00000F1FF336BD2A24569D90238744440EA51
:100B00000940A0FB0289A4EB0A044C45C2464B46AF
:100B100054D351D0002E69D0B1EB0A0564EB030425
:100B200004FA0CFCFD40FC404CEA0505C6E9005403
:100B3000002747E7C2F1200320FA03F7954001FAA6
:100B400002F021FA03F34FEA154E3843010CB3FBD0
:100B5000FEF71FFA85F80EFB173341EA034107FB46
:100B600008F38B4204FA02F407D9691807F1FF3C35
:100B70002FD28B422DD9023F2944CB1A81B2B3FB2D
:100B8000FEF00EFB103341EA034100FB08F38B42F9
:100B900007D9691800F1FF3C17D28B4215D90238EA
:100BA0002944C91A40EA07473BE73746304609E778
:100BB0000746E7E61846FBE64145ABD2B8EB020A2A
:100BC00069EB0E0201381346A4E76046E9E71846D0
:100BD00095E76746D1E781467CE702382C4447E732
:100BE000ACF1020C2B442FE7384608E73746E9E61C
:100BF000704700BF000000002DE9F0410F46D0E92A
:100C00000B15866A4C193034A642904618D9144CFC
:100C100011A3D3E90023A6FB0401FFF757FE3035EB
:100C200020F07F4038600CA3D3E90023A5FB04012A
:100C3000FFF74CFE20F07F40C8F80000BDE8F081CF
:100C4000074D05A3D3E90023A1FB0501FFF73EFEF5
:100C5000A41BE5E7AFF300808D49FD1A07000000F3
:100C600000CA9A3B000000002DE9F04FC94C94F8EF
:100C70004A508DB005F00105002800F03E81002D9E
:100C800040F0838194F8292094F8353094F82500B9
:100C900004EB820204EB8303FF2100F0030084F8DD
:100CA0002610D66AD3F8388021F0BEFA94F84A00AC
:100CB000420700F1148286B13146B6481FF09AF817
:100CC00033785B0605D5062119F0F0FF002800F007
:100CD000A6824146AF481FF08DF8337803F00F032A
:100CE000012B00F26181236A002B40F04E811EF03F
:100CF00037F98146002800F054821EF03DF9824603
:100D0000002800F0A6821FF001FE0546002800F032
:100D10009D82406F4FF6FF732B8505F11C0B002859
:100D200000F09C8205F1680205F1640119F0CAFF28
:100D300095F8603095F87A7095F83C1095F8390080
:100D400095F8D8204FF0010C03F0F7036CF3020381
:100D50006CF3061385F8603095F8613007F0FC0EEF
:100D600001F0FC0100276CF3020367F3820160F0DD
:100D70007F0002F0FC0267F3820E4FF01B0C67F35A
:100D8000820285F8613067F386104FF4A47385F80A
:100D90003C10062185F87AE085F8D820A5F858C0DF
:100DA000A5F85AC0A5F85C30A5F85E3085F8390082
:100DB000A5F8C0106F6785F8787085F8797085F8A8
:100DC0003B706F86EF852F86C5E912772F65A5F8F2
:100DD000C470A5F8C870A5F8D070A5F8CC70A5F8B7
:100DE000E47085F8E670C5F80871A5F80C71A5F8EF
:100DF00020711DF05FF805F59472C2E9000105F558
:100E0000987300200021C3E9000195F83A2195F874
:100E10007A1095F8663195F886C195F8AE0185F897
:100E2000397101F0EF0102F0FD0203F0FC0367F3FA
:100E3000C30167F3000267F3041C67F3820367F3DF
:100E4000C30085F87A1085F83A2185F886C185F8BF
:100E5000663185F83871A5F8407185F8437185F8D9
:100E6000657185F8647185F8D970A5F88471C5F845
:100E7000E070A5F8AC71A5F8B871C5F8449185F893
:100E8000AE0120F08DF8A5F8D20020F08FF895F88B
:100E9000BF31A5F8D40003F0F70367F3000385F82A
:100EA000BF31A5F8BC7120F087F895F8C03160F328
:100EB000020385F8C03120F085F895F8C031C4F8F8
:100EC00020B060F3C503C4E9109AC5F8D471C5F821
:100ED000D071C5F8CC71C5F8C871C5F8C47185F872
:100EE000C0312F70C5E90577ED6122F0FBFB0028CA
:100EF0005AD01EF03FFD032048E0002D45D0236A64
:100F000053B193F8202042F0020283F82020236A94
:100F100093F82030D80738D41E481EF0FBF88442DE
:100F20000CD040F60B031C4A1C491D4829F0E0F880
:100F3000404080F311884FF0030002DF94F8243022
:100F4000D90700F1E6800BAD02210A460B9100950E
:100F50000321144B00201BF031FA29461EF0B2F891
:100F6000002800F0F0800B481EF0DEF884420CD020
:100F700040F62403084A0949094829F0B9F84040D5
:100F800080F311884FF0030002DF0C200DB0BDE8A4
:100F9000F08F00BF542C002058290300542A03006E
:100FA0008C24030065DF010094F824300CA8C3F3FF
:100FB000420300F8043D012119F0F8FF002800F079
:100FC000A180337803F00F03022B00F1FF3100F012
:100FD0001B81012B00F0E08098F801201032D20034
:100FE000002B40F02C8170781030C000024402F5D4
:100FF0004D7300F59A7000FB0133A148E4610025B0
:101000003127A3FB0001C4E902759BA3D3E90023A8
:101010002570C4E905556560FFF758FC2061B4F8F8
:1010200048801BF011FA0746B8F1000F07D1357858
:1010300005F00F05A5F10105B5FA85F56D0994F8E0
:101040002400D4F810C065F3000010F0010684F805
:10105000240000F0A8800CAD022645F8086D0020A1
:10106000884BDFF82882059303210694CDF810C041
:10107000CDF804C008953246CDF81C80CDE90200B9
:1010800000903B461BF012F929461EF01BF8002881
:1010900038D17D4905914AF2D8320092CDE90785D1
:1010A0000694CDE90300CDE901003B46012203216E
:1010B0000A961BF0FBF829461EF004F810BB94F8C2
:1010C0004A3043F0010384F84A301EF0A5FF04467D
:1010D00000285FD1012021F089F8204656E7C0F3AF
:1010E000C0002A4604F14B0121F038FAFF2884F8A9
:1010F00026003FF4E0AD284621F0DCF8002E7FF416
:10110000DBADEAE5236A002B3FF43FAF1EF032FC73
:101110003BE70CAD022345F8043D03215B4B0095F2
:10112000012200201BF04AF929461DF0CBFF0028C0
:101130003FF40AAF56481DF0F7FF84423FF425AF55
:1011400040F6160316E753481EF01CF8002868D135
:101150004F481DF0E9FF84420CD040F62D034E4A63
:101160004E494F4828F0C4FF404080F311884FF0AB
:10117000030002DF236A0BB11EF0FCFB94F84A3037
:101180006FF3000384F84A3000201EF045FF044648
:101190000028A0D00020F9E64FF47F734FF4F270DE
:1011A00029E70720F2E63F4B3F48CDF810C01FFA71
:1011B00088F80CF2471C06940CADC3F800C0A8FBDD
:1011C00000014FF0910C0CFB08114FF0020845F89C
:1011D000088D2E4ADFF8ACE009934FF6FF7CCDE98D
:1011E000072525A3D3E900230296CDF814E0CDF816
:1011F0000CC0FFF76BFB4246CDE900603B46304632
:1012000003211AF0FBFF56E773781033DB0000FB75
:1012100003F000F5AA70642303FB0103EDE612203E
:10122000B4E640F62A031C4A20491D4828F060FF16
:10123000404080F311884FF0030002DF88E7062B5F
:1012400010D04FF41B734FF4DA70D4E650461DF003
:1012500099FE48461DF08AFE072097E605F16C00CE
:1012600068675FE570781030C00000F54D73134477
:1012700000F59A70BFE600BF8D49FD1A0700000017
:1012800000CA9A3B01F6010015F8010065DF010074
:10129000542C0020702C002058290300542A0300ED
:1012A0008C240300A82C0020002AE7844827030090
:1012B0002DE9F047184D9DF820C095F8304014F006
:1012C00001081ED195F82060DFF850E069851FFA0B
:1012D00082F960F3451663F34204A9FB0E016CF337
:1012E000C406912303FB091185F8304008A3D3E914
:1012F000002385F82060FFF7E9FAE8624046BDE880
:10130000F0874FF00C084046BDE8F087AFF300804F
:101310008D49FD1A07000000CC2C0020002AE7842C
:101320002DE9F04F044600F1230190F8300094F8C5
:101330002030C0F3400060F386138DB084F8203075
:101340001BF088F894F82030668D4348E46103F080
:10135000F9030025A6FB000191226FF3C71302FBDE
:10136000061184F82030257039A3D3E90023C4E99D
:101370000555FFF7ABFAE36A656007460933A7F145
:10138000310293424FF0310132BF23612561E562A2
:10139000C4E902151BF058F8304D0694B4F82AA0A1
:1013A0002F49DFF8C0C0DFF8C0E081462A480CAE04
:1013B000651BA1FB05354FF00208AAFB0001912334
:1013C00046F8048D03FB0A11236904934FF0000AC9
:1013D0001FA3D3E90023CDF81CC0CDF814E0089674
:1013E000CDF80CA0FFF772FA104619464FF47A7246
:1013F0000023FFF76BFA2D090435EDB22A4602905F
:101400004B460321CDF800A0504601971AF04EFF3D
:1014100031461DF057FE054668B994F8303043F068
:10142000010384F830301EF061FC044638B12846D0
:101430000DB0BDE8F08F0C200DB0BDE8F08F404638
:1014400020F0D4FE20460DB0BDE8F08FAFF3008051
:101450008D49FD1A07000000002AE784CC2C0020EB
:101460004FECC44E65DF010055FE01000000000096
:101470000B68DA881AB101221A71002070472DE931
:10148000F04F804687B00F46D1484FF4F07119F005
:10149000F5FB038D0546CBBB3E6890F86611327FA5
:1014A00012F0030201F0010000F08C80022A34D90E
:1014B00006F11C0296F81F90002800F08A8095F92A
:1014C0003930002B01F00400C0F22084002800F025
:1014D0002A84B9F1020F00F02A84B9F10B0F00F051
:1014E0006B84B9F1040F27D0B9F1050F24D0B9F1FD
:1014F000060F00F03184B9F10D0F00F0B783B9F198
:10150000110F00F070833D2385F843313B680122C1
:101510001A71002007B0BDE8F08F00284ED03D22A0
:1015200085F843213A68012118461171F2E795F9CF
:101530003930002BC0F2928495F8D84004F00204B0
:10154000002C39D1A34819F067FB002800F02F8543
:1015500095F8D820037942F0020285F8D8200222BB
:101560004271D5F8C41180F8089043F003030722B4
:101570000371C271002900F0BC8395F866319A07A7
:1015800000F1B78395F8BF31DB0700F1B283D5F8DE
:10159000D031994200F0A184D5F8C831002B00F079
:1015A000AD84D5F8CC311A68026018600168C5F8BE
:1015B000CC0109B9C5F8D40101233371002007B06B
:1015C000BDE8F08F0028F7D03D2385F843313E6811
:1015D000F2E7B9F1180FAFD801A353F829F000BF13
:1015E000A5190000671700002F1D00004D1B00000B
:1015F0003915000039150000591D0000A71C000016
:1016000071180000DD170000851A0000792800001D
:10161000D91A00006D1C00003915000039170000B0
:1016200039150000E71B00001D1700000917000016
:101630008F1600008F1600004516000039150000B7
:101640002F150000737F032B7FF476AF95F93930A7
:10165000002BC0F20E8695F8BD2195F8BC118A4288
:1016600000F0588495F8BE3103F00303013B022BD0
:1016700000F2508495F8D8309B079DD43146284617
:101680002323162207B0BDE8F04F1FF019B8737F6F
:10169000092B7FF451AFB9F1140F00F08C8495F849
:1016A000AC1195F8AD2101918A42B5F85A30B5F8E0
:1016B00058E0B5F85EA0B5F85CB001F0A88095F8E8
:1016C000AE2102F00702012A41F2A1800021022A84
:1016D00000F0928496F81F90B9F1150F3FF46EAFA9
:1016E00008463C4919F0B2FA95F8AE3195F8D82081
:1016F00003F007036FF34102042B85F8D8207FF431
:101700005DAF6FF00F0005E7727F012A7FF414AF21
:101710000023A5F8C83018463271FBE6777F95F8AC
:10172000D840012F04F002047FF40AAF002C00F02F
:101730005E8637710020EDE6737F182B7FF4FCAED8
:10174000254C23680193002B00F0FF839D4200F09D
:10175000FC8395F8D8309F073FF52EAF31462846D9
:1017600020230F228EE795F93930002BBFF6E4AE27
:10177000737F082B7FF4E0AEB6F825406B8EE31A3A
:101780001F0401F1198095F8E43095F8E5209B1AC3
:1017900003F00303022B01F00780052206F120016C
:1017A00005F1E9002BF094FB95F8E82095F8E53079
:1017B000A5F8EE4002206FF30002023B012185F8FC
:1017C000E60085F8E82085F8E53000203171A1E6D3
:1017D000B0180020A02D0020142D0020737F092BAD
:1017E0007FF4AAAE716A306A0FF24C39D9E90089E8
:1017F00005F59474D4E9002301F00F0B40EA0800CA
:101800004BEA090102EA000703EA0108C4E900788B
:10181000D6F82080D6F824901CF04CFB08F0FF038B
:1018200043F0D00628F0FF0200EA0608C44E09F093
:101830000F030024002701EA040942EA060043EAF4
:10184000070140EA080241EA090305F59871C1E978
:10185000002395F8D82095F8203185F8213142F001
:101860000102002385F8D820A5F8C830184651E6B3
:1018700095F9393095F8D840002B04F00204BFF6F2
:101880005FAE737F0193092B7FF45AAE002C7FF477
:1018900093AEAC4819F0C0F90746002800F08783E2
:1018A00095F8D83043F0020385F8D830336AA2A106
:1018B000D1E900019B4605F5947A736ADAE900895B
:1018C00003F00F034BEA000B43EA010C0BEA08029A
:1018D0000CEA0903CAE90023336A9846736A9946F9
:1018E000C3461CF0E7FA08F0FF08CC464FF00009A9
:1018F00048F0D0024B46CDE9022395F8D830049346
:10190000DDE9022302402BF0FF0893468C4A97F84A
:1019100004E00B4042EA08000CF00F095A469C46CE
:10192000002343EA09010243634604980B4305F58B
:101930009871C1E9002340F0010C019B85F8D8C0E3
:101940004EF0030E08227B71FB7187F804E0B81893
:1019500021462BF0EAFA1CF0ADFA95F828817C7349
:101960004FF0000968F0FF0200EA020849F00F0397
:1019700001EA03094FEA18434FEA132CC8F3072280
:101980002846BB7287F8088087F80C90BC73FC73FC
:1019900087F80BC07A7239461EF016FF01232046E5
:1019A0003371B7E595F93930002BBFF6C5AD737FBC
:1019B0000C2B7FF4C1ADB6F829006B8EC31A1B0443
:1019C00000F1FA8695F8E43095F8E5209B1A03F0CB
:1019D0000303022B00F0E8865B4B1A68002A00F034
:1019E000228796F8203085F81C31B6F8211095F83A
:1019F0000E3140F2E24202FB01F2C5F8182196F8DE
:101A0000241096F8232042EA0122A5F8102196F826
:101A1000261096F8252042EA0122A5F8122196F810
:101A2000271096F8284095F80D21A5F8E80003F056
:101A3000F803D5F8080143F00803013A41EA04210C
:101A400085F80D2185F80E31A5F81411C8F80400A9
:101A50003B68C3F800803B68C5F8083100233B6051
:101A600095F8842195F88531934206D095F8863112
:101A700003F00703042B00F0D9860023A5F8C83033
:101A8000184647E595F93930002BBFF655AD747F00
:101A9000012C7FF451AD2B4819F0BEF80146002807
:101AA00000F0858295F8662195F87A000B7942F06E
:101AB000050285F866216FF3C30043F003030B2290
:101AC00085F87A002846CA714C710B7100221EF00D
:101AD00055FB347100201DE5747F062C7FF42CAD7E
:101AE00095F83A31DA0740F1C38513F002037FF429
:101AF00063AD95F83821A5F8C83085F8392196F8F6
:101B0000203085F83B3196F8221096F8212095F880
:101B10003A3142EA0122A5F83C2196F8232096F8B2
:101B2000241043F0020342EA0122A5F83E2185F881
:101B30003A310020EEE400BFD03078080000000009
:101B400000307808A02D0020142D002095F93930A0
:101B5000002BBFF6F1AC737F172B7FF4EDAC95F83B
:101B6000E52095F8E4309B1A03F00303022B00F004
:101B70002786082206F1200105F269102BF0A8F94A
:101B800096F8283085F8673196F8293085F868315D
:101B900095F8F4203968012363F3010285F8F420F5
:101BA0000B7195F8E5300322023B85F8E53085F8A6
:101BB000E62006F12A01082205F1F6002BF088F94B
:101BC000042206F1320105F194002BF081F995F819
:101BD0006631B5F8C620A5F8C82043F0010385F8A2
:101BE0006631002096E4737F032B7FF4A5AC96F852
:101BF00020300F2B00F0898540F21683142B00F063
:101C00005782162B7FF4D8AC95F8BC0195F8BD31FE
:101C100083423FF4D1AC96F82120232A12D095F8C4
:101C2000603095F8BF1185F8BD01C3F3020060F381
:101C300006136FF30001002085F8603085F8BF11AE
:101C4000A5F8C80095F8BF315C077FF5B5AC1A233D
:101C50003277337195F86030C3F30203737795F8E8
:101C60006130C3F30203B377002053E4737F022B88
:101C70007FF462AC95F8E43095F8E510994204D011
:101C800095F8E610032900F0338495F8BC0195F827
:101C9000BD31834200F0128596F8202086F821207D
:101CA000232ABCD1CEE7737F022B7FF445AC95F895
:101CB000851195F8842196F82030914202D00F2B9F
:101CC00000F0418395F8AC2195F8AD11914202D016
:101CD000142B00F0828395F8BC1195F8BD218A423F
:101CE00002D0162B00F09E83122B04BF0123337108
:101CF000C3E6D5F8C831002B7FF453AC0160C5F8BA
:101D0000C401C5F8C801C5F8CC0152E4E0B1B9F18D
:101D1000020F0CD0B9F10B0F00F09480B9F1030F52
:101D20007FF4E5AB17E7B9F1020F7FF4DDAB737F0A
:101D3000022B7FF401AC96F8203085F84331012363
:101D400033710020FFF7E6BBB9F1070FABD0B9F153
:101D5000020F7FF4CCABEAE795F8E43095F8E52084
:101D60009A423FF4E9AB95F8E620032A7FF4E4AB0E
:101D7000727F012A7FF4E0AB95F93920002AC0F286
:101D8000BC8495F8661185F8E53001F0FE016FF32B
:101D90004101002385F86611A5F8C830C9B24E0785
:101DA0007FF50CAC3B686FF38201172285F8661152
:101DB00000201A71FFF7AEBB737F012B7FF4BCAB21
:101DC000CE4818F029FF002800F0F18095F87A300D
:101DD00095F86611027903F0EF036FF3C30385F8FA
:101DE0007A3041F00101012385F866114371D5F87D
:101DF000C43142F003020B210271C171002B00F0CB
:101E0000958295F86621940700F1908295F8BF219C
:101E1000D10700F18B82D5F8D021934200F07F8565
:101E2000D5F8C821002A00F01C85D5F8CC311A68F5
:101E300002601860C5F8CC010368002B7FF4BCABCE
:101E4000FFF7B8BB737F012B7FF476AB95F87A3040
:101E50006FF3041385F87A30FFF7AEBB737F052B61
:101E60007FF46AAB96F8202096F8211042EA010030
:101E700010F0070440F04C8395F8BC1195F8BD3183
:101E80008B423FF499AB95F8BE3103F00303022B6C
:101E90007FF492AB95F8602095F8BF3185F8BD11BD
:101EA00064F30003C2F3020161F3061285F8BF3147
:101EB00013F00403A5F8C84085F860203FF432AB66
:101EC0003B681A221A713477717795F86130C3F341
:101ED0000203B3772046FFF71DBBD5F8C8210B6876
:101EE000C5F8D031002A7FF45CAB0360086001685C
:101EF000C5F8C801C5F8CC01FFF75BBB0B7903F04F
:101F00000303032B00F00A82C5F8CC11C5F8C811F1
:101F1000FFF747BB95F8E43095F8E5001B1A03F08E
:101F20000303022B00F0E38095F8840195F88531D6
:101F3000984200F0658395F8D8309F073FF53CAB99
:101F4000314628462A23FFF79CBB95F9390095F8BE
:101F5000853195F8842102930028C0F2D180934204
:101F600009D095F8862112F0070200F0BB83043AED
:101F7000012A40F2B78395F8E42095F8E500121A9B
:101F800002F00302022A00F06B8595F8BC0195F877
:101F9000BD21904200F0D68495F8D83098073FF5DF
:101FA0000BAB314628462A230F22FFF76BBB6FF09D
:101FB0006800FFF7AFBA95F8D8309A073FF5FCAA4A
:101FC0004E4818F029FE01460028F0D095F8D82098
:101FD00095F8AC4195F8AD01019442F002028442BB
:101FE000B5F85A30B5F858E0B5F85EA0B5F85CB071
:101FF00085F8D82040F00E84328C1A2A40F295835E
:10200000B5F8D200824228BF0246B6F824C0B6F81E
:102010002290F48CBCF11A0F94BF9C464FF01B0C1D
:10202000B9F5A47F184634BF58464FF4A470B4F5F0
:10203000A47F34BF54464FF4A4749C4500F07783CA
:10204000019BA5F8B0C1013B85F8AD31A5F8B221DF
:10205000A5F8B441A5F8B60195F8AE31002900F015
:102060008C83052666F3020385F8AE31D5F8083176
:10207000C8F804303B68C3F800803B68C5F80831F5
:1020800000233B6000293FF499AA0B798A8143F031
:10209000030315220926C881A1F808C028464C81EF
:1020A0000B714E71CA711EF08FFB0020FFF732BA20
:1020B00095F8AC2195F8AD3193423FF47DAA002309
:1020C000092185F8AD21A5F8C8307177B5F85A20F7
:1020D000B5F85870B5F85E40B5F85C10328415223A
:1020E0001846B7847484F184F277FFF713BA95F831
:1020F000E630032B7FF41FAF16E700BFA02D0020B2
:10210000029B934204D095F8862193077FF454AA4A
:10211000B6F820A0B6F822901FFA8AF2052A1FFA14
:1021200089F140F2A081B1F5486F00F29C818A42AA
:1021300000F29981B6F824801FFA88F0B0F5FA7F92
:1021400080F09181B6F826E01FFA8EF2A2F10A0C17
:102150001FFA8CFC40F6764BDC4500F2848100FBD4
:10216000011CBCEB820F80F07E8196F828C061458F
:10217000C0F07981A5F88EE1A5F888A1A5F88A912B
:10218000A5F88C8185F890C196F82A8096F829C028
:10219000B5F82AE04CEA082CA5F892C196F82C80F4
:1021A00096F82BC04CEA082CA5F894C196F82E801E
:1021B00096F82DC04CEA082CA5F896C196F8308008
:1021C00096F82FC04CEA082CA5F898C196F83280F2
:1021D00096F831C04CEA082CA5F89AC196F833C09D
:1021E00096F834804CEA082CA5F89CC196F835C0C6
:1021F00096F836608E454CEA0626A5F89E6100F0FA
:10220000468395F88621032161F3020285F8862131
:10221000029B5A1E019B85F88521002B7FF4CEA9D5
:1022200025601846FFF776B9032B7FF4C5A995F80A
:10223000E43095F8E5209A423FF4BEA995F8E620EF
:10224000032A7FF4B9A995F8662185F8E53002F0F4
:10225000FE026FF34102002385F86621A5F8C8301D
:1022600096F8212086F820200D221846F277FFF7F5
:1022700051B995F8D88018F002087FF49DA9DA4882
:1022800018F0CAFC014600283FF491AE95F8D8300A
:1022900095F8BE0195F8C04195F8BDE195F8BC21CF
:1022A000022767F301003B437245C4F30207C4F3FE
:1022B000C20485F8BE0185F8D830F8B25FFA84FC14
:1022C00000F0178395F8BE3196F821000A79C3F320
:1022D000820C00EA0C0060F3840385F8BE3196F8A6
:1022E0002000DBB200EA531060F3471342F0030210
:1022F0004FF0030E4FF0170C85F8BE3128460A71D7
:102300000F724C7281F805E081F807C000221DF0C1
:1023100035FF012333710020FFF7FCB8CB79032B85
:1023200002D00A2B7FF4F0AD0B68DEE5D5F8C821AA
:10233000002A7FF47AAD0360C5F8C401C5F8C8016E
:10234000C5F8CC0178E595F8863195F9391043F058
:102350001003002985F88631C0F2958095F80C317C
:1023600095F80D118B420ED041F691139F4AA0496A
:10237000A04827F0BDFE404080F311884FF00300D5
:1023800002DF95F80D1195F88631B5F88A0195F8B8
:102390000E21A5F81001013985F80D110520012144
:1023A00060F3020385F81C113C6885F8863161F3FF
:1023B0000202C3F3C00363F3C302B5F88C6185F86E
:1023C0000E210020B5F88E21C5F81801A5F812617C
:1023D000A5F814212171FFF79DB895F8AE3185F865
:1023E000AD2143F0080385F8AE31FFF746BB7E48C8
:1023F00018F012FC014600283FF4D9AD95F8D8201A
:10240000037942F0020285F8D82043F00303132237
:10241000477128460B71CA711EF0D6F937712046F4
:10242000FFF778B895F8BF3195F8602085F8BD11B1
:1024300043F008036FF30003C2F3020161F30612D5
:10244000580785F8BF3185F8602017D53A68002312
:102450001A2010717177337795F86130C3F3020356
:10246000B377FFF70ABB95F8D8309F073FF5A4A8CC
:10247000314628461E230F22FFF704B93B6801228C
:102480001A71FFF7FABA5C4C23689D420ED041F6F0
:10249000A813564A5949574827F02AFE404080F36E
:1024A00011884FF0030002DF95F8842195F88631FA
:1024B00085F8852113F008034FF0000222603A6886
:1024C0003FF431A816211A23117133776B8DB5F8BB
:1024D000C220A98DF38303FB02F27D2303FB02F3E9
:1024E00031844FF47A72B3FBF2F37384FFF7C5BA09
:1024F00095F8662185F8E53002F0FE0200236FF3BF
:10250000410285F86621A5F8C8301846FFF702B8E1
:10251000708C6B8EC31A1C0400F14E8195F8E43068
:1025200095F8E5401B1B03F00303022B00F03C81F0
:1025300095F8BC6195F8BD31B34218D095F8BE311D
:1025400003F00303022B12D195F8BF3195F8E84050
:1025500085F8BD616FF30003C3F3800666F34104A1
:10256000002685F8BF3185F8E840A5F8C86095F8E1
:10257000E830A5F8EA0061F3840362F347136FF3D0
:102580000003D5F8082185F8E830C8F804203B6836
:10259000C3F800803B68C5F8083100233B601CF09D
:1025A00025FD0446002800F024812368D5F8082181
:1025B0005A6095F8E52095F8E830C5F80841023AE8
:1025C000062113F01C0F85F8E52085F8E6103EF48F
:1025D000F5AF95F86020C3F3820363F3061285F824
:1025E00060200020FEF796BFA02D0020DC2A03000B
:1025F000342B03008C240300142D00205C2B0300DB
:1026000095F8BE318A4243F0030385F8BE3100F0ED
:10261000118195F8BE3196F82120C3F382010A405A
:1026200062F3840385F8BE3196F82020DBB202EA1B
:10263000531262F34713DAB212F01C0F85F8BE3161
:1026400002D012F0E00F07D195F8BE3103F0E3039A
:102650006FF3471385F8BE3195F8BF3143F001039E
:1026600085F8BF313B6801221A710020FEF752BF86
:10267000AF4818F0D1FA014600283FF498AC95F81D
:102680003A21037942F0010285F83A2143F003032D
:102690000C22447103710B244FF0FF336FF00E00D6
:1026A000CA7105224872CB720B730C728A7228466B
:1026B0001EF08AF801233371FFF721BA95F88511CE
:1026C00095F8843199423FF4F3AC96F8203086F8BF
:1026D00021302846311D1DF053FF00287EF46CAFD9
:1026E000FEF76CBF95F8D8309C073EF565AF3146D4
:1026F000284623230F22FEF7C5BF95F8F4306FF369
:10270000010385F8F430FFF74ABB95F8851195F879
:10271000843199423EF450AF2846311D1DF030FF00
:1027200000287EF449AFFEF749BF72466DE44FF0D2
:102730000008019B85F8AD317245A5F8C8802BD003
:10274000A5F85E4019B395F8AE71019BA5F8B0C12C
:102750004FF0030E013B6EF3020785F8AD31A5F88B
:10276000B221A5F8B441A5F8B60185F8AE71A6F876
:1027700020C0B2847484F08484E4042666F30203E7
:10278000A5F85820A5F85C0085F8AE316EE4A5F8F0
:102790005820A5F85C00EAE75845D1D15445CFD17F
:1027A0003B6801261E716DE4012333712A2385F8ED
:1027B00043310020FEF7AEBE012333712823F6E734
:1027C00095F8D930023285F8E52063B141F24573BE
:1027D000584A5949594827F08BFC404080F31188EA
:1027E0004FF0030002DF95F8E63085F8D930FFF7A7
:1027F000C0B941F25A534F4A5149504827F078FC2A
:10280000404080F311884FF0030002DFCDE6002145
:10281000FEF762BF95F8AE2102F00702012A3EF6EC
:1028200056AFFFF7E9BB1D60FFF7DBB885F88521E0
:10283000FFF723B995F8C01195F8BF01C1F3020461
:10284000DBB264F38403C1F3C201013A61F34713BD
:102850006FF3820085F8BD2185F8BE3185F8BF0190
:10286000D7E61A7902F00302032A34D0C5F8CC3136
:10287000C5F8C831FFF7D9BA737F012B7EF45CAE7F
:1028800095F93930002BBFF69BAAFFF7DFBAA98D67
:1028900081427FF4B6AC40F2E24101FB0EF142F21C
:1028A000107000FB0212B5F8C200013AB2FBF1F25F
:1028B00092B290427FF4A5AC95F88621002185F86C
:1028C00087113868012102F0F70261F3020285F8EE
:1028D000862101719CE4DA79032A01D00A2AC5D144
:1028E0001A6802601860C5F8C801C5F8CC01FFF786
:1028F000A3BA95F8BE3160F3840395F8BF016CF379
:102900004713013A68F38200B5F8C6C085F8BD21C7
:1029100085F8BE3185F8BF01A5F8C8C0D2E4D5F866
:10292000C8111A68C5F8D02100297FF47EAAD8E71B
:10293000A02D0020DC2A0300AC2C03008C24030013
:10294000D02C0300B6F82090F38C96F828A0B6F8A7
:102950002280B6F824B0ADF816301FFA89FE9AB27C
:10296000BEF1050F1FFA8AF31FFA88F01FFA8BFCDD
:1029700004937FF678ADB0F5486F3FF674AD8645A9
:102980003FF671ADBCF5FA7FBFF46DADA2F10A0E52
:102990001FFA8EFE40F676439E453FF664AD0CFB73
:1029A000000EBEEB820FBFF45EAD049B9842FFF4B5
:1029B0005AADBDF81630A5F88A81A5F88891A5F81A
:1029C0008CB1A5F88E3185F890A196F82A9096F8EA
:1029D00029E0B5F82A804EEA092EA5F892E196F88A
:1029E0002C9096F82BE04EEA092EA5F894E196F883
:1029F0002E9096F82DE04EEA092EA5F896E196F86D
:102A0000309096F82FE04EEA092EA5F898E196F856
:102A1000329096F831E04EEA092EA5F89AE196F840
:102A200033E096F834904EEA092EA5F89CE196F82A
:102A300035E096F8366080454EEA0626A5F89E6198
:102A400015D0890795F886217FF5DDAB396802201E
:102A500060F30202012085F886210871FFF7D8BBD8
:102A600095F8E620032A7FF497AAFFF78EBAAE8D79
:102A70006645E6D140F2E24606FB00F042F21076EF
:102A800006FB0202B5F8C260013AB2FBF0F292B264
:102A90009642D6D110E700BF2DE9F04F044690F8DA
:102AA000E53090F8E40083428FB00D46164614D00E
:102AB000C31A03F00303022B26D094F93920002A0D
:102AC0003EDB94F8403194F841219B1ADBB2012B94
:102AD00051D000200FB0BDE8F08F94F93920002AC2
:102AE000C0F2FE8394F8667117F00108E7D194F8FC
:102AF0000D1194F80CC18C4500F0DC85831E012279
:102B000084F8E53084F8E62094F8AC3194F8AD21EF
:102B10009A4207D094F8AE1101F00700021F012A73
:102B200040F2E78394F8E630013B052B00F2C983BD
:102B3000DFE813F052021E029801C7035301AF00F1
:102B400094F8D9100029BCD0022900F08D870629FD
:102B500000F0F686012900F007864FF48C63BD4A29
:102B6000BD49BE4827F0C4FA404080F311884FF0B9
:102B7000030002DFA5E7BA4818F04EF890B394F8C6
:102B80004131013B84F8413103790222427143F023
:102B900003030371C271D4F8C43194F84221027264
:102BA000D4F8C821002B00F07D8394F866118D07BE
:102BB00000F1788394F8BF11C90700F17383D4F84A
:102BC000D0118B4201F04983002A01F0BF84D4F870
:102BD000CC311968016018600368C4F8CC01002B7F
:102BE00000F0AB83B4F8C80000287FF472AFB4F8EB
:102BF000C230012B40F25985A4F8C83069E7C2F30E
:102C0000820384F8BD11990742F13581022363F3F1
:102C1000840284F8BE2194F8BE315A09910742F12A
:102C20002081022262F3471384F8BE3194F8BE215A
:102C300094F86030C2F3820103F007038B4294F8EA
:102C4000E83014BF61F384036FF3840384F8E83041
:102C500094F8613094F8BF11520903F007039342CE
:102C600094F8E83014BF62F347136FF3471384F806
:102C7000E83094F8E820C1F3800142F0010261F3EA
:102C80004102831E062184F8E53084F8E82084F8A8
:102C9000E610E18D628E94F8E8300A44324413F075
:102CA000010C97B2194640F04B83B4F8EA0094F94E
:102CB00039203F1A38043FF502AF002AC1F23282B0
:102CC00094F8E42084F8E52094F8617094F860208A
:102CD000B4F85E9007F0070013F01C0F02F0070A2B
:102CE0000A9041F0B680B4F85C8013F0E00F08D091
:102CF00094F861205B0963F3020284F861204FF4C9
:102D0000A479D4F808B1BBF1000F01F0BB81DBF866
:102D10000000002801F0B68194F8602094F861303A
:102D20004768C4F80871C2F30202C3F302038F07B5
:102D30005FFA82FC5FFA83FE02D4E24501F0B683BB
:102D4000218DABF806101A2700218BF804708BF840
:102D50001C108BF81D208BF81E3059461CF018F9FA
:102D6000D4F80871002F01F0A0813868002801F024
:102D70009C81B4F85C304268C4F8082143450AD30A
:102D8000B3F5A47F07D8B4F85E304B4503D3B3F551
:102D9000A47F41F2A183A4F85C80A4F85E903B7FFD
:102DA000228DFA8043F0030309227A773B77B4F847
:102DB0005A30B4F858103B84032215233A71B98471
:102DC000FB773946A7F82290A7F826801CF0E0F898
:102DD0001CF0E8F894F9392071E6214817F01CFF3F
:102DE00000283FF46AAE94F8E43084F8E53001231B
:102DF00002794371D4F8C431D4F8C87142F00302A7
:102E000012210271C171002B00F0638694F86621D3
:102E1000910700F15E8694F8BF21D20700F1598630
:102E2000D4F8D021934201F05985002F01F0E785B5
:102E3000D4F8CC311A68026018600368C4F8CC0179
:102E40000BB9C4F8D401B4F8C630A4F8C83094F96A
:102E5000392034E6DC2A03006C2503008C240300AF
:102E6000A02D002094F8F43013F0030700F0B28393
:102E700094F93930002BBFF624AE012F7FF460AEF9
:102E8000544817F0C9FE074600283FF416AE0379F0
:102E90000D2243F003034FF0040900F10808037109
:102EA000427180F807900C21404620F071F94146AC
:102EB000082204F1FE002AF00BF84A4607F110013F
:102EC00004F198002AF004F8D4F8C431002B01F082
:102ED000B78394F86611D4F8C821880701F1B2834A
:102EE00094F8BF11C90701F1AD83D4F8D0118B421A
:102EF00001F00187002A01F0A887D4F8CC311A68C4
:102F00003A601F60C4F8CC713B68002B01F08285E9
:102F10001CF06CF8074600283FF4CFAD3B7F228DB4
:102F2000FA8043F00303032217213B773A71FA77C3
:102F30007977082204F2691107F1200029F0C8FF0F
:102F400094F8673187F8283094F8683187F8293089
:102F5000394638681CF01CF81CF024F894F8F4305A
:102F600094F93920022161F3010384F8F430A6E5D5
:102F7000E18D638E94F8E8200B44334412F0010194
:102F80009FB240F0DC82B4F8EE3094F93920FB1A9D
:102F90001F043FF594AD002AC1F2BB8094F8E430E1
:102FA00084F8E53004F13407052204F1E9013846DC
:102FB00029F08EFF3846052117F0F8FF94F83920E4
:102FC000012360F3050284F8392084F8D83152B225
:102FD00075E500BFA02D0020DFF86C84D8F8003024
:102FE000002B00F05F83E18D638E94F80E210B447B
:102FF000334412F007019FB240F02A82B4F8E8305F
:1030000094F93920FF1ABFB23B043FF558AD002AAE
:10301000C0F2F98694F8E43084F8E53094F884211D
:1030200094F8853194F80C1184F80D1193420AD06C
:1030300094F8863103F00703052B04D1002384F8AC
:103040008521A4F8C830D8F800309C4204BF002382
:10305000C8F80030D4F80881B8F1000F00F090856E
:10306000D8F80000002800F08B85B4F81031628D8C
:103070004168C4F808119A42B4F812C1B4F814E1D6
:1030800000F0F186228DA8F8062016210022A8F86B
:103090001E30A8F820C0A8F822E088F8041088F8AC
:1030A0001C2041461BF074FF1BF07CFFA368002B23
:1030B00009DAE268616823F000438A422CBFAD1848
:1030C0006D18A360ED1A638DB4F8108113FB07F33C
:1030D0009BB2B3FBF8F11FFA81F918FB09F292B227
:1030E000934280F03B85D31ACB4840F2E24202FB88
:1030F00003F3A3FB0001C6A3D3E90023FDF7E6FB1E
:1031000020F07F400544E38D94F939203344DB1BE4
:103110004B4440F2E24A002AE3850AFB08F8C0F279
:103120007B8640F6C523BD4ABD49BE4826F0E0FF78
:10313000404080F311884FF0030002DF00230D931D
:103140004646B4F81421B4F81211B74BB748A1851C
:1031500042F2107707FB028243444044B3FBF8F38A
:103160008F1D013AB2FBF8F2B0FBF8F898B2A4F860
:10317000C220B842B4F81021A4F8CE00A4F8C6804A
:10318000628504DDC1F57F43FA33184480B294F8B8
:103190000E31A4F8CA001F0744BF0023A4F8C430AE
:1031A0000221012022F010FF00220221834601208B
:1031B00017F0D8FD4FF4F0729D49204617F062FDDC
:1031C00005305FFA80FA9B4B0094524601210020A3
:1031D00019F0F4F830F002030CD040F6F5238F4AD2
:1031E0009549904826F084FF404080F311884FF0C5
:1031F000030002DF884BA6FB0367304684A3D3E9B4
:1032000000233946FDF762FB8C4A08948046072369
:1032100020F07F40002103FB00F302FB0133A0FB01
:103220000212CDE90A121A440B92DDE90A01236960
:10323000DFF818C20694301A67EB010104934FF4CB
:103240007A7200237E4ECDF81CC04FF6FE740596B0
:103250000394FDF73BFB28F07F43CDE901300D9B44
:10326000009352462B460121002019F01FF830F040
:1032700002030CD040F60F33684A6F49694826F0C4
:1032800037FF404080F311884FF0030002DFBBF1AD
:10329000000F04D001221046022117F063FD6FF0E9
:1032A0008B0017E4002A00F00984D4F8CC311A68A6
:1032B000026018600368C4F8CC01002B7FF492AC64
:1032C0003BE040F22F43554A5549564826F010FF3F
:1032D000404080F311884FF0030002DFFFF7EDBBA1
:1032E00094F8D91000293FF4FDAB00293FF4E9AB75
:1032F0002AE4C1F302085FFA88F7072F0ED04FF0D7
:10330000010909FA07F212F04E0C7FF40BAC12F02F
:10331000300F40F04E87002F01F0078240F6F16336
:103320003E4A3F493F4826F0E3FE404080F3118883
:103330004FF0030002DFFFF7F5BBC4F8D40151E4FE
:1033400002201BF035FE824600283FF4B6AB3D4814
:1033500017F062FC804600283FF4AFAB94F8E820F9
:103360006FF30002D3B2C3F3820959EA531984F808
:10337000E82041F0808194F8E420A4F8EA909907CD
:1033800084F8E52001F16E824B464946052288F813
:10339000052088F8089088F8093098F80420D4F8B7
:1033A000C431A8F80A1042F003021820D4F8C8115A
:1033B00088F8042088F80700002B00F0608794F854
:1033C0006621920700F15B8794F8BF21D70700F1CF
:1033D0005687D4F8D021934201F09183002901F05F
:1033E0000784D4F8CC311A68C8F80020C3F80080EC
:1033F000D8F80030C4F8CC8194F93920002B7FF440
:103400005EABC4F8D481FFF75ABB00BFAFF30080B6
:103410008D49FD1A0700000000CA9A3BDC2A030010
:103420006C2503008C2403007FC3C901FF5962028D
:10343000B0180020E90402007C2C03008D49FD1A1D
:10344000151B0200A02D0020142D00209104020065
:1034500001201BF0ADFD814600283FF42EABC04893
:1034600017F0DAFB804600283FF427AB1BF0BEFDC7
:10347000D9F8002098F80430D4F80811516043F0CE
:1034800003030C22C4F8089188F8052088F804305A
:10349000A38DD4F81821B34994F80E0106333B44A8
:1034A000002788F80770A1FB0212C2F38F2294F85C
:1034B0001C1188F80810D4F8C411A8F80920B4F831
:1034C0001021A8F80B20B4F81221A8F80D209BB207
:1034D000B4F81421A8F80F2067F30200A4F8E8302C
:1034E00084F80E01A8F81130002900F0538694F8F2
:1034F0006631980700F14E8694F8BF31DA0700F183
:103500004986D4F8D031994201F0A882D4F8C83164
:10351000002B01F00683D4F8CC311A68C8F80020DB
:10352000C3F80080D8F80010C4F8CC8100297FF4DB
:10353000C4AAC4F8D48194F93920FFF7C0BA8848E6
:1035400017F06AFB804600283FF4B7AAA38D0279E2
:1035500094F8E81006333B44A4F8EE306FF3000112
:10356000012342F00302082084F8E81088F80420C0
:1035700088F8050088F80730052204F1E901404485
:1035800029F0A6FCD4F8C431B4F8EE20A8F80D2038
:10359000002B00F0E18594F86611D4F8C821880763
:1035A00000F1DC8594F8BF11C90700F1D785D4F884
:1035B000D0118B4201F04082002A7FF412AF1A79B9
:1035C00002F00302032A01F0C684C4F8CC31C4F827
:1035D000C83106E7624817F01FFB804600283FF419
:1035E0006CAA94F93930002B00F1040980F264864A
:1035F00094F87A301A0701F16F8094F8F570002F73
:1036000001F07B81037994F8D82043F00303037120
:10361000D30741F14F8004F59473D3E900230021CF
:1036200002F0040050EA010301F044801122032358
:1036300088F8097088F8072088F8083088F805307D
:10364000D4F8C431D4F8C821002184F8F510002B37
:1036500001F0048094F86611880700F1FF8794F860
:10366000BF11C90700F1FA87D4F8D0118B4201F0DD
:103670000983002A01F05C84D4F8CC311A68C8F8B8
:103680000020C3F80080C4F8CC81D8F800300BB912
:10369000C4F8D48194F8E43084F8E53094F9392002
:1036A000FFF70DBAC8F800409DE40133A4F8C83014
:1036B000FFF710BA94F821C194F820E1F44500F026
:1036C0001482ACEB0E0C1CF0010F3FF4F8A994F837
:1036D000D83013F0010900F061861BF087FC074623
:1036E000B8B394F8203184F82131037F228DC28051
:1036F00043F003030922032041463B7738717A7770
:10370000FA7707F12000082229F00FFCD4F83021C5
:10371000D4F8343187F82430100C190C4FEA102CEF
:10372000C3F3072387F823C087F82200C2F3072CCE
:10373000080A87F8261087F8202087F821C087F824
:10374000270087F82530394608681BF021FC1BF05C
:1037500029FC94F8E40094F8E530FFF7A9B900BF1C
:10376000A02D00205917B7D1DFF87C84D8F800309D
:10377000002B00F04583638EE18D94F80E210B44FD
:10378000334412F007029FB240F08982B4F8E83067
:10379000FF1ABFB23B043FF594A994F8841194F842
:1037A000853194F80C0184F8D9208B4284F80D01FE
:1037B00009D094F8863103F00703052B04BF84F881
:1037C0008511A4F8C820D8F800309C4204BF00231B
:1037D000C8F80030D4F80881B8F1000F00F05D831C
:1037E000D8F80000002800F05883B4F81031618D3B
:1037F0004268C4F808219942B4F81221B4F814C1FF
:1038000000F06C84218DA8F806104FF0160E0021F0
:10381000A8F81E30A8F82020A8F822C088F804E0F4
:1038200088F81C1041461BF0B3FB1BF0BBFBA368E0
:10383000002B09DAE268616823F000438A422CBF5A
:10384000AD186D18A360ED1A638DB4F8108113FBE9
:1038500007F39BB2B3FBF8F11FFA81F918FB09F2E9
:1038600092B2934280F09D81D31AD94840F2E2424D
:1038700002FB03F3A3FB0001D3A3D3E90023FDF76D
:1038800025F820F07F400544E38D94F93920334436
:10389000DB1B4B4440F2E24A002AE3850AFB08F8AE
:1038A000BFF63FACA26C236CC94E03FB1727A7647D
:1038B0001FF06CFF074694F8D800C0F3C2001FF059
:1038C00067FF3B1808FB03F303F57423C14FA26C99
:1038D00094F81C1103F23F23A7FB03039F0C07FB83
:1038E00009F04FEA58030244963B9A420AFB01FC56
:1038F00028BF1A464FF0000EC4E91132A0FB0601A2
:10390000B1A3D3E90023C4F850C0C4F8E0E02764B1
:10391000FCF7DCFFB04AD4F81831A2FB03239B0A62
:103920000AFB03FA2D1AA8A3D3E90023AAFB060178
:10393000FCF7CCFF20F07F43A8EB07060D9300E4D3
:10394000E18D628E94F8E8300A44164413F00100C9
:10395000B6B2194640F04A81B4F8EA20B61A3504E6
:103960003FF5AFA894F8602094F8618084F8D900FE
:1039700013F01C0F02F0070908F00708B4F85E7096
:1039800040F0A383B4F85C6013F0E00F08D094F823
:1039900061205B0963F3020284F861204FF4A4778D
:1039A000D4F80851002D00F0C6832868002800F0E4
:1039B000C28394F861C094F860204368C4F8083169
:1039C000C2F30202CCF3020389075FFA82FC5FFABA
:1039D00083FE02D4E14500F09C85218DE9804FF003
:1039E0001A0C002129776A77AB7785F804C029463D
:1039F0001BF0CEFAD4F80851002D00F0BC832868E3
:103A0000002800F0B883B4F85C304268C4F808219C
:103A1000B3420AD3B3F5A47F07D8B4F85E30BB42F3
:103A200003D3B3F5A47F40F28885A4F85C60A4F8C2
:103A30005E702B7F228DEA8043F0030309226A77B0
:103A40002B77B4F85A30B4F858102B84032215237E
:103A5000A9842A71EB7729466F84EE841BF098FACB
:103A60001BF0A0FAFFF72DB8638EE18D94F8E820E3
:103A70000B441E4412F00102B6B240F07981B4F852
:103A8000EE30F61A31043FF51CA804F1340584F831
:103A9000D92004F1E9010522284629F019FA28461F
:103AA000052117F083FA94F83930012260F30503F9
:103AB00084F8393084F8D821FFF703B80360C4F8DC
:103AC000C401C4F8C801C4F8CC01002B7FF48AA853
:103AD00033E4002F7FF4ACA90360C4F8C401C4F838
:103AE000C801C4F8CC01FFF7ABB994F839C194F818
:103AF00038E1F44500F0E181ACEB0E0C1CF0010F55
:103B00003EF4DDAF94F83A3113F0010700F073860C
:103B1000980740F14E861BF069FA014600283FF4F1
:103B200018AE94F8383184F83931037F228DC28081
:103B300043F003030B77032006220C234A77CB774D
:103B4000087194F83B01B4F83C21B4F83E31A1F877
:103B5000233081F82000A1F82120F5E508FB11337E
:103B600040F2E2429BB21A4802FB03F3A3FB0001BE
:103B700015A3D3E90023FCF7A9FE2D1AFFF7C3BA5A
:103B800040F64923154A1649164826F0B1FA404036
:103B900080F311884FF0030002DFD8F80000FFF730
:103BA00064BA08FB113340F2E2429BB2084802FBC0
:103BB00003F3A3FB000104A3D3E90023FCF786FE73
:103BC0002D1A61E6AFF300808D49FD1A0700000051
:103BD00000CA9A3B83DE1B435917B7D1DC2A030086
:103BE000682C03008C240300142D002002201BF0FD
:103BF000DFF9804600283EF464AFC24817F00CF8A5
:103C0000054600283EF45DAF94F8E8206FF300020B
:103C1000D3B2C3F3820757EA531784F8E82040F081
:103C2000CB8594F8E420A4F8EA709B0784F8E5209B
:103C300000F1B4863B46394605226A712F726B72D9
:103C40002A79D4F8C431698142F003021820D4F8EB
:103C5000C8112A71E871002B00F0578494F866218E
:103C6000970700F1528494F8BF21D60700F14D84E4
:103C7000D4F8D021934200F0C987002901F02D80AB
:103C8000D4F8CC311A682A601D602B68C4F8CC5176
:103C9000002B7EF416AFC4F8D451FEF712BF0120FA
:103CA0001BF086F9064600283EF40BAF954816F047
:103CB000B3FF054600283EF404AF1BF097F93268C5
:103CC000D4F808112B7951600C22C4F808616A718C
:103CD000D4F818218C4994F80E0143F003032B719A
:103CE0000026A38DEE71A1FB0212C2F38F2294F87D
:103CF0001C1129720633D4F8C411A5F80920B4F8B0
:103D00001021A5F80B203B44B4F81221A5F80D2092
:103D10009BB2B4F81421A5F80F2066F30200A4F8B2
:103D2000E83084F80E01A5F81130002900F0AB82CC
:103D300094F86631980700F1A68294F8BF31DA074B
:103D400000F1A182D4F8D031994200F0B586D4F8C0
:103D5000C831002B00F06987D4F8CC311A682A608A
:103D60001D602968C4F8CC5100297EF4AAAE92E700
:103D7000644816F051FF054600283EF4A2AEA28D1D
:103D8000037994F8E810063243F0030316446FF306
:103D900000010820012284F8E810A4F8EE6004F184
:103DA000E9012B716871EA712818052229F090F851
:103DB000D4F8C431B4F8EE20A5F80D20002B00F0A3
:103DC0003F8294F86611D4F8C8218E0700F13A8238
:103DD00094F8BF11C80700F13582D4F8D0118B4296
:103DE00000F07E86002A7FF44BAF1A7902F00302BE
:103DF000032A01F02280C4F8CC31C4F8C8313FE76F
:103E0000C8F80040B7E494F8D930002B3FF402A979
:103E100084F8D910FFF702B9A26C236C3B4E03FB68
:103E20001727A7641FF0B2FC074694F8D800C0F328
:103E3000C2001FF0ADFC3B1808FB03F303F574232D
:103E40003348A26C94F81C1103F23F23A0FB030338
:103E500044E5C3F3820060F3020284F860204FF46B
:103E6000A478FEF742BFA18D61457FF40BA940F213
:103E7000E24909FB02F942F2107202FB0E92B4F819
:103E8000C210013AB2FBF9F292B291427FF4FAA861
:103E9000012388F80430FFF704B940F649231D4A8E
:103EA0001D491E4826F024F9404080F311884FF048
:103EB000030002DFD8F8000097E494F885E194F855
:103EC00084C1E64500F0C982DFF85480D8F800C00C
:103ED000BCF1000F00F0EC8464457EF4F0AD94F882
:103EE00086C10CF0070CBCF1050F00F2CB85DFE8B2
:103EF0000CF0814119030303024618461346FEF7EE
:103F0000D7BD00BFA02D00205917B7D100CA9A3BDA
:103F100083DE1B43DC2A0300682C03008C2403008F
:103F2000142D0020B9073EF5CAAD1BF05FF801461D
:103F300000283FF40EAC94F886010B7F032262F355
:103F40000200134384F88601208D0B7718234B77EA
:103F5000B4F88A31B4F888710A71C880B4F88E2137
:103F6000B4F88C014B840F230F848884CA84CB77E8
:103F7000FFF7EABB94F88771002F40F0CA86002A49
:103F8000C0F28C8794F8863194F89001C4F81871C7
:103F9000052262F30203012284F81C2184F8863191
:103FA000B4F88A2150B192FBF0F313FB00F3B4F89C
:103FB00088019BB29842A4F8103101D9A4F81021CD
:103FC00094F80E31B4F88C0194F88621A4F812010B
:103FD0000220C2F3C00260F3020362F3C30301399B
:103FE000B4F88E2184F80D1184F80E31A4F8142150
:103FF000FEF767BDAC48678EB4F82E9016F00CFE45
:10400000014600283FF4A5AB0379C8F8004043F00F
:104010000303182242710371B4F88831B4F88CC1DB
:10402000002207EB0900B4F88A710B81B4F88E31D5
:104030000A744F813044B4F8C670A1F80CC0CB812B
:104040004FF00F0C4FF0FF33CA740A754B758B7528
:10405000CB750B764B768B76CB760B774B778B7756
:1040600081F807C0A4F8C870A1F8110094F886314F
:10407000042060F3020384F8863120461CF07EF8A9
:10408000FFF767BB41F20203884A8949894826F055
:104090002FF8404080F311884FF0030002DFDBF877
:1040A000000094F8E810FEF737BE41F22E037F4A75
:1040B0007F49804826F01CF8404080F311884FF07B
:1040C000030002DF3868FEF754BEC3F3820060F3DA
:1040D000020284F860204FF4A47655E4B4F82CE092
:1040E00096457FF48FAB40F2E24909FB01F942F2B9
:1040F000107101FB0C91B4F8C2E00139B1FBF9F188
:1041000089B28E457FF47EAB012388F80430FFF737
:1041100089BB94F8D930002B3EF440AF84F8D91015
:10412000FEF740BF94F8D920002A3EF4C9AD84F8C8
:10413000D9C0FEF7C9BD41F202035C4A5C495D4843
:1041400025F0D6FF404080F311884FF0030002DFD6
:10415000286894F8E8102CE4D4F8C821002A7FF4E9
:1041600040A9C8F80030C4F8C481C4F8C881C4F8B4
:10417000CC81FFF741B941F22E034C4A4C494D48DE
:1041800025F0B6FF404080F311884FF0030002DFB6
:10419000286838E4D4F8C831002B7FF4BCA9C8F8EB
:1041A0000010C4F8C481C4F8C881C4F8CC81FFF7FA
:1041B000BDB9B4F8B071B4F8B421A4F85A700428A9
:1041C000A4F85E20B4F8B281B4F8B67100F0E782CA
:1041D000062363F3020184F8AE11D4F80891B9F113
:1041E000000F00F01A82D9F80000002800F01582B4
:1041F00099F81C304268C4F8082143F003030921F0
:10420000228D89F81C3089F81D10B4F85A30B4F8A2
:104210005E10A9F80620A9F8203003221523A9F87A
:10422000221089F8042089F81F304946A9F8248013
:10423000A9F826701AF0ACFE1AF0B4FEFEF772BCB4
:10424000D4F8C821002A7FF41BAD2B60C4F8C451F8
:10425000C4F8C851C4F8CC511AE51968C4F8D01193
:10426000002A7EF4B4AC016018600368C4F8C80189
:10427000C4F8CC01002B7EF4B5ACFFF75EB8002982
:104280007FF4AFA86DE7D4F8C831002B7FF464AD9C
:104290002960C4F8C451C4F8C851C4F8CC510029ED
:1042A0007EF40FACF7E400BFA02D0020DC2A030051
:1042B000682C03008C24030004F17B0A53463A4621
:1042C00004F1F60104F2711021F082F95146102236
:1042D00004F19C0028F0FCFD082204F1940104F193
:1042E000B50028F0F5FD94F8930094F8B42094F804
:1042F0007A3084F88B7043F0080367F3000042F0D3
:10430000010284F8930084F87A3084F88C7084F881
:104310008D7084F88E7084F88F7084F8907084F8B3
:10432000917084F89270C4F8AC704946C4F8B070CB
:1043300084F8B42020461CF035FAD4F8C431002BA0
:1043400000F0D58094F86611D4F8C821880700F1F0
:10435000D08094F8BF11C90700F1CB80D4F8D011F8
:104360008B4200F07D84002A00F0AB84D4F8CC317D
:104370001A68C8F80020C3F80080D8F80030C4F8E4
:10438000CC81002B00F0598194F8F43094F9392055
:1043900043F0030384F8F430FEF791BBC94816F0EC
:1043A0003BFC074600283FF4D4A994F821310922A8
:1043B000013B84F82131427194F939200379002AB4
:1043C000B4BF0E22082243F00303C2710822037116
:1043D0004946104428F0A9FDD4F82821D4F82C31FE
:1043E0003B73100C190C4FEA102CC3F3072387F80A
:1043F0000BC0B872C2F3072C080A3A7287F809C0DA
:10440000B973F8737B73D4F8C431002B00F0A98022
:1044100094F86611D4F8C821880700F1A48094F8B4
:10442000BF11C90700F19F80D4F8D0118B4200F072
:104430000884002A00F08E84D4F8CC311A683A60DF
:104440001F603B68C4F8CC71002B00F0CD82B4F83B
:10445000C630A4F8C830FFF77CB994F8AC1194F8D2
:10446000AD718F4200F08A8094F8AE3103F00700FE
:1044700007280CD00127874017F04E0F7EF41FABA2
:1044800017F0300F40F05983002800F06E8440F69A
:10449000F1638D4A8D498E4825F02AFE404080F315
:1044A00011884FF0030002DFFFF753B90A997145F5
:1044B0007EF446AC01238BF8043059461AF068FDAF
:1044C000D4F80871002F00F0E0823868002800F06E
:1044D000DC824368C4F8083101233B7139461AF085
:1044E00057FD1AF05FFD94F93920FEF7E8BAD4F8C9
:1044F000C821002A7FF43AAFC8F80030C4F8C4815C
:10450000C4F8C881C4F8CC813BE700297FF4B8AB7C
:104510009BE6F0457FF461AA01232B7129461AF02E
:1045200037FDD4F80851002D00F048832868002892
:1045300000F044834368C4F8083101232B712946F5
:104540001AF026FD1AF02EFDFEF7BBBA1A7919688B
:1045500002F00302032A00F04A82C4F8C831FEF7D1
:1045600039BBD4F8C821002A7FF466AF3B60C4F899
:10457000C471C4F8C871C4F8CC7165E794F8BC1173
:1045800094F8BD718F423EF49AAA94F8BE2102F0CD
:104590000307032F00F221830FF2040C5CF827F0CD
:1045A000B1450000F93E0000F93E0000FF2B00007D
:1045B000444816F031FB014600283FF4CAA894F89D
:1045C000BE7194F8BF0194F8C02194F860E0012313
:1045D00063F30107FBB2C3F3820CC0F34000C3F3E3
:1045E000421360F3C30E6CF30202087984F8BE71C3
:1045F00063F3C50284F8C02140F0030016220327AC
:1046000084F860E0CA7181F808C04B7208714F717C
:10461000002220461BF0B2FD19E740F6C9632A4A82
:104620002C492B4825F064FD404080F311884FF061
:10463000030002DFD9F80000DAE5C4F8D481A3E66C
:10464000D4F8C821002A7EF458AC3B60C4F8C47189
:10465000C4F8C871C4F8CC71FEF756BC002A7FF4C8
:104660000BA8C8F80030C4F8C481C4F8C881C4F8E5
:10467000CC81FFF70AB8A28D06323A44A4F8EA20AA
:104680001AF0B4FCDAF80030D4F808215A60C4F803
:1046900008A11AF0ABFC0368D4F808215A6094F81A
:1046A000E830C4F80801C3F38209B4F8EA105B09E2
:1046B000FEF76CBE0D2388F8073088F808700223D7
:1046C000FEF7BCBFA02D0020DC2A03006C250300F0
:1046D0008C240300682C0300494620461CF062F835
:1046E000D4F8C431002B00F0AF8094F8662197070E
:1046F00000F1AA8094F8BF21D00700F1A580D4F87A
:10470000D021D4F8C811934200F05084002900F061
:104710004284D4F8CC311A68C8F80020C3F800806D
:10472000C4F8CC81D8F800302BE6DF4816F074FAD4
:1047300000283EF4F7A9B4F8B631B4F8B2C1A4F831
:10474000D2C0A4F8D43094F8AE11037969F3020111
:1047500043F0030384F8AE114FF0090E48F01B013B
:1047600080F8098003713A4648F04803142748EA64
:104770000908017283728373A0F80CC080F805E009
:10478000C77180F80B8080F80F80014620461BF02F
:10479000F5FCB4F8C630A4F8C830FEF7C3B9B4F8D5
:1047A000B821002A40F03A8184F8AD31A4F8C8203D
:1047B00013E540F6C2436CE6A38D06331E44A4F80D
:1047C000EA601AF013FCD8F80030D4F808215A60D7
:1047D000C4F808811AF00AFC0368D4F808215A606A
:1047E00094F8E830C4F80801C3F38207B4F8EA107B
:1047F0005B09FFF721BAAC4816F00EFA00283EF428
:10480000A8AF94F8393194F83A11013B84F8393162
:10481000037941F0010143F0030384F83A110C21BC
:1048200003710B234FF0060C3A46C1716FF00E076F
:10483000052103724FF0FF33817280F805C0477283
:10484000C37203730146E4E6D4F8C821002A7FF45A
:1048500060AFC8F80030C4F8C481C4F8C881C4F897
:10486000CC815FE71AF0C2FB228D8AF81C9094F885
:104870006030AAF80620C3F302038AF81D3094F8CA
:104880006130DAF80000C3F302031A228AF81E30FE
:1048900051468AF804201AF07BFB1AF083FB94F847
:1048A000E830B4F8EA10C3F382095B09FEF76EBD85
:1048B00094F8863103F00703052B00F2E38001A092
:1048C00050F823F0F53F0000753F0000253F000041
:1048D000BF2A0000BF2A0000BF2A00001A68C4F8DF
:1048E000D021002F7EF4A4AA026018600368C4F8E7
:1048F000C801C4F8CC01FEF7A3BA04F17B094B460A
:104900003A4604F1F60104F2711020F061FE4946C6
:10491000102204F19C0028F0DBFA04F19401082233
:1049200004F1B50028F0D4FA98F8043094F89320F4
:1049300094F8B40094F87A1084F88B7067F3000050
:1049400042F0010241F0080143F003034FF0010E71
:104950004FF0050C84F8932084F8B40084F87A10A2
:1049600084F88C7084F88D7084F88E7084F88F7061
:1049700084F8907084F8917084F89270C4F8AC70E8
:10498000C4F8B0703A46414688F8043088F805E02B
:1049900088F807C020461BF0F1FBF5E41AF026FB6F
:1049A000228D88F81C7094F86030A8F80620C3F3B4
:1049B000020388F81D3094F86130D8F80000C3F382
:1049C00002031A2288F81E30414688F804201AF0A3
:1049D000DFFA1AF0E7FA94F8E830B4F8EA10C3F313
:1049E00082075B09FFF728B9C4F8D4712FE5DA799B
:1049F000032A3FF438AC0A2A7FF4AFAD33E41979C7
:104A00001A6801F00301032900F0EA80C4F8C831F4
:104A1000FEF711BAC4F8D471FEF77ABA6CF302014A
:104A2000B4F8BA3184F8AE11A4F8B221A4F8B8C130
:104A3000A4F8B631FFF7D1BB1968C4F8D011002A29
:104A40007EF4CFACC8F80010C3F80080D8F800306E
:104A5000C4F8C881C4F8CC81FEF7CEBCD4F8C82114
:104A60000B68C4F8D031002A7EF455ADC8F8003088
:104A7000C1F80080D8F80010C4F8C881C4F8CC810F
:104A8000FEF754BD40F6F55303E541F21103074A22
:104A90000749084825F02CFB404080F311884FF06F
:104AA000030002DF386814E5A02D0020DC2A030093
:104AB000682C03008C240300D4F8C8210B68C4F8C8
:104AC000D031002A7FF448A92B600D602968C4F812
:104AD000C851C4F8CC5100297DF4F3AFFFF7DBB81F
:104AE0001968C4F8D011002A7FF4CAA829601D6093
:104AF0002B68C4F8C851C4F8CC51FFF7C9B81A687C
:104B0000C4F8D02100297EF46CACC8F80020C3F8AA
:104B10000080D8F80030C4F8C881C4F8CC81FEF712
:104B20006BBC0B7903F00303032B00F06B81C4F81B
:104B3000CC11C4F8C811FEF7EEBC03F00703B4F8BB
:104B4000B001B4F8B421A4F85A00042BA4F85E20F4
:104B5000B4F8B291B4F8B68100F0F58194F8AE31B2
:104B6000062262F3020384F8AE31D4F80871002FF4
:104B700000F098803868002800F094803B7F4268FD
:104B8000C4F8082143F003030921228D3B7779778C
:104B9000B4F85A30B4F85E10FA803B84032215232F
:104BA00079843A71FB773946A7F82490A7F82680D4
:104BB0001AF0EEF91AF0F6F9FEF7CBBD41F2110347
:104BC000B24AB349B34825F093FA404080F31188C4
:104BD0004FF0030002DF2868ACE440F66C7358E441
:104BE000D97903293FF480AE0A297FF40FAF7BE621
:104BF0001A7902F00302032A7EF4E7ACDA79032A79
:104C000002D00A2A7EF4E1AC1A687EE71A68C4F87A
:104C1000D02100297FF434A82A601D602B68C4F8D5
:104C2000C851C4F8CC51FFF733B80B7903F0030334
:104C3000032B00F0CB81C4F8CC11C4F8C811FFF7E6
:104C40008BB81968C4F8D011002A7FF4F5AB39602D
:104C50001F603B68C4F8C871C4F8CC71FFF7F4BB9F
:104C60001968C4F8D011002A7FF480ABC8F800108E
:104C7000C3F80080D8F80030C4F8C881C4F8CC81EB
:104C8000FFF77FBB1968C4F8D011002A7EF4F4AC9A
:104C9000C8F80010C3F80080C4F8C881C4F8CC81FB
:104CA000FEF7F3BC40F6C963784A7949794825F0A4
:104CB0001FFA404080F311884FF0030002DF38688C
:104CC0005CE71A7902F00302032A00F04C81C4F871
:104CD000CC31C4F8C831FFF749BB1A7902F003029E
:104CE000032A7FF488A8DA79032A02D00A2A7FF4FB
:104CF00082A81A6890E71968C4F8D011002A7EF4D7
:104D0000FCA839601F60C4F8C871C4F8CC71FEF704
:104D1000FBB8614815F080FF014600283EF419AD4C
:104D2000037943F003030B71112003220F23C87191
:104D30004A710B7294F887314B72002220461BF0A7
:104D40001DFA94F8843184F885310023C8F80030C6
:104D5000FEF7FFBC1A7902F00302032A5AD0C4F806
:104D6000CC31C4F8C831FFF767BB4B4815F054FF8E
:104D700000283EF4EEAC94F8AE31B4F8B271B4F859
:104D8000B621A4F8D2700121A4F8D42061F3020363
:104D9000092284F8AE3142710279D4F8C431878196
:104DA00042F003024FF0140CC172C173002702716C
:104DB0001B21482280F807C04772017282728273F9
:104DC0007BB394F8662192072BD494F8BF21D707C0
:104DD00027D4D4F8D021934200F02281D4F8C821FE
:104DE000002A00F01381D4F8CC311A6802601860F0
:104DF000C4F8CC010368002B7FF429ABC4F8D401BC
:104E0000FFF725BBCB79032B02D00A2B7FF48FAEA3
:104E10000B682BE6DA79032A01D00A2A9FD1196898
:104E200015E7D4F8C821002ADDD10360C4F8C40115
:104E3000C4F8C801C4F8CC01DCE7DA79032A02D04F
:104E40000A2A7EF4D8AF196850E61A7902F00302F4
:104E5000032A00F0FB80C4F8CC31C4F8C831FEF757
:104E60004CB8D70740F1FA80012262F3471384F867
:104E7000BE31FDF7DBBEDF0740F1B080012363F3F5
:104E8000840284F8BE21FDF7C6BE00BFDC2A030001
:104E9000682C03008C240300A02D0020744815F01A
:104EA000BBFE014600283EF454AC0379182243F0BF
:104EB000030303714271B4F88821B4F88A31B4F85D
:104EC0008C010A81B4F88E214B8110238881CA811C
:104ED000CB7194F890310B74B4F89231B4F894011A
:104EE000B4F89621A1F81130B4F89831A1F8130064
:104EF000B4F89A01A1F81520B4F89C21A1F8173054
:104F0000B4F89E31A1F81D30A1F81900A1F81B20BA
:104F100020463A461BF032F994F8843184F8853102
:104F2000C8F8007094F8E40094F8E530FDF7C0BDCF
:104F30001A7902F00302032A5AD0C4F8CC31C4F81B
:104F4000C831FEF799BBB4F8B831A3B984F8AD11F4
:104F5000A4F8C83009E6DA79032A02D00A2A7EF4D6
:104F600034AB19686EE5DA79032A02D00A2A7FF495
:104F7000AEAE19687AE694F8AE21A4F8B2310023F7
:104F8000B4F8BA11A4F8B83163F3020284F8AE2180
:104F9000A4F8B611E9E51A7902F00302032A2ED02B
:104FA000C4F8CC31C4F8C831FFF7B3BB1A68C4F8F1
:104FB000D02100297FF4ADABC8F80020C3F80080F1
:104FC000C4F8C881C4F8CC81FFF7ACBBCB79032B04
:104FD00002D00A2B7FF42FAE0B6875E513F00403A3
:104FE00018BF042363F3840284F8BE21FDF713BEC7
:104FF000DA79032A01D00A2A9FD1196848E6DA79BA
:10500000032A01D00A2ACBD11A68D5E71A7902F00F
:105010000302032A13D0C4F8CC31C4F8C831E2E645
:10502000D4F8C8111A68C4F8D02100297FF4DBAE87
:1050300002601860C4F8C801C4F8CC01DAE6DA7975
:10504000032A01D00A2AE6D11A68F1E7DA79032A9D
:1050500002D00A2A7FF4FFAE196852E612F0040269
:1050600018BF042262F3471384F8BE31FDF7DEBD9A
:10507000A02D0020000000002DE9F04F037F0E68F6
:1050800099B017460C46C3F3801336688DF84F303D
:1050900000F11E013B680D960546062216A80A93EC
:1050A00027F016FF94F81280B8F1FF0F0DF1500AA7
:1050B0005AD052460DF14F0140461CF0E9FF9DF8D1
:1050C0004F3002338DF84F302946032251F82E6BB2
:1050D00007F1080007F1040927F0FAFE07F1180BA1
:1050E000042205F12A01484627F0F2FE052258461F
:1050F00005F13A0127F0ECFE5846052115F056FF60
:1051000095F83F20797F00F03F0060F30501C2F37E
:1051100004037977BB77B5F834B0A7F80EB001284F
:10512000DBB21FFA8BF105D91B3303F01F030B2BE6
:1051300000D8F9B997F8203064686FF300034FF096
:10514000010887F820303046294685F8048019F098
:105150001FFF206884F80480214619F019FF19F018
:1051600021FF19B0BDE8F08F5046062216A927F09E
:10517000AFFEA9E70A9B93F8D80023684FF0000C14
:10518000C3F804C095F837C095F8363043EA0C23CD
:105190003B82520962F3C5006A8E10920A9A40F26D
:1051A000E24382F8D80003FB01FB0F931EF0EEFAF6
:1051B0000A990E9091F8D800C0F3C2001EF0E8FAE8
:1051C0000E9ADFF808C395F83110B7F810E01044D4
:1051D0000BFB00F000F5742000F23F20ACFB003028
:1051E0000F9BB14A4FEA5B0C03FB01F3800CACF15F
:1051F00096017862B962BB632B8FADF846301846D2
:1052000042F2107303FB00B30A98A8495A440EF106
:10521000060CB2FBFBF2013BB3FBFBF3A0F8C23080
:1052200093B263455944A0F8CE30B1FBFBF1A0F82E
:10523000C61006DDCEF57F4E0EF1FA0E9E441FFA23
:105240008EF30A984946A0F8CA300422DC3027F0D1
:105250003FFE4FF480722B7FAA830D9AC3F3401355
:1052600092F826008DF838301DF058FC9DF8383043
:105270000F930146062205F12B00002940F0EA8039
:1052800027F053FEB8F1FF0F05F1250000F0E7808D
:1052900016A9062227F01CFE9DF84F30AB77514629
:1052A000062205F11F0027F013FE0A98F98990F8ED
:1052B000D8303A8AAA86C3F3C20385F83830BDF8DD
:1052C0004630EB8669861BF02DFB2946B881E880C5
:1052D0006568304619F05CFEBB89EB8019232B71A1
:1052E0000F9B2E68002B40F0BF809DF838302B7745
:1052F0002946304619F04CFE19F054FE97F8450047
:10530000012100F007001EF065F8694A804600F2AE
:105310005240A0FB02010A9A002631235660C2E9DE
:1053200002365FA3D3E90023FBF7D0FAE5681099B2
:105330000A9A7F6A40F2E24303FB015520F07F4066
:1053400005F2B245A5EB08031061022132460120A7
:105350000E9315F007FD0D9D28461AF0ABFC821C3C
:10536000D2B230460095534B012117F027F801289F
:10537000ABEB070700F08B800D9B93F82430DB0725
:105380007DD40A9DDFF828B128461BF0CBFAA7FB95
:105390000B6743A3D3E90023824639463046FBF727
:1053A00095FA454A06958046072320F07F40002164
:1053B00003FB00F302FB0133A0FB0201CDE90A016C
:1053C00019440B91DDE90A014FF4D572A468DFF8A6
:1053D00000C10892394ACDF81CC005922B6904938C
:1053E000301A67EB01014FF47A720027002303970C
:1053F000FBF76CFA0E99029029A3D3E9002328F059
:105400007F46A1FB0B010196FBF760FA0AF1050A42
:1054100020F07F405FFA8AFA3A3C009023465246D9
:105420003846012116F042FF30F002030CD04FF451
:10543000D673234A2349244824F05AFE404080F37F
:1054400011884FF0030002DF01221046022115F0FF
:1054500089FC86E605F1240127F03AFD12E70622D1
:10546000002127F062FD17E77B7F43F040037B7745
:1054700048461CF06FFC0123F8832B7738E70023A4
:10548000012200931846114616F098FF79E719F0AB
:1054900057FE0D9B83423FF46FAF1CF017FB6BE789
:1054A0008D49FD1A070000007FC3C901FF59620240
:1054B00000CA9A3BF91A02008D49FD1A151B020019
:1054C000342D03007C2C03008C24030083DE1B435B
:1054D0009D1A0200000000002DE9F04F91B0074630
:1054E0000DF13F010DF13E00374D384E19F0C4FD6E
:1054F0009DF83E300D939DF83F8016F0A5FF2B6878
:10550000A3FB0634CDE90A3481462DA3D3E9002359
:10551000DDE90A01FBF7DAF9824668682C4B05934E
:10552000002427A3D3E90023A0FB0601CDE907440B
:105530000697FBF7CBF920F07F40CDE90340254AE1
:10554000DDE90A672AF07F4007230021434302FB7D
:105550000133A0FB0201361A194467EB01074FF42F
:105560007A72002330463946FBF7B0F92AF07F43C0
:10557000CDE9004302904B46424603210D9816F0B8
:1055800095FE30F0020415D1134A1448002323F08D
:105590005FFC68B19DF83F209DF83E0000942346D3
:1055A000032116F00BFF6FF0730011B0BDE8F08F10
:1055B000E868FAE76FF08B00F7E700BFAFF3008011
:1055C0008D49FD1A070000002C36002000CA9A3BC6
:1055D000817202008D49FD1A447B0B003C3600208D
:1055E00038B50F4D044616F02FFFA96816F02EFFB0
:1055F0000C49B0FBF4F40444686807A3D3E9002322
:10560000A0FB0101FBF762F920F07F40844294BFC8
:105610000020012038BD00BF8D49FD1A07000000A1
:105620002C36002000CA9A3B014824F061BD00BF1F
:105630008338030008B5024824F05AFD002008BD55
:105640009B38030070B520F05DFF064620F05AFF3E
:10565000044620F057FF054620F054FF124B320E4F
:10566000DA73320C9A73320A5A73220EDA72220CEF
:105670009A72220A5A722A0EDA712A0A5A71020E94
:105680001D71DA70C5F30345020C04F03F049A70F3
:1056900045F04005020A64F07F041E735A701870CA
:1056A0009D711C7270BD00BF9E380020FE30B0F5A9
:1056B000FE7F01F1FE01F8B502F1FE028CBF00266B
:1056C0000126B1F5FE7F8CBF00250125B2F5FE7FD6
:1056D0008CBF002401240C4F0C4823462A46314637
:1056E00024F006FD32460721386824F0DDFB2A4607
:1056F0000521386824F0D8FB224638680621BDE829
:10570000F84024F0D1BB00BF901D0020F438030006
:1057100008B5054824F0ECFC00221146FF20BDE846
:105720000840FFF7C3BF00BFC936030010B5094CDE
:1057300001220721206824F0B7FB012205212068FF
:1057400024F0B2FB206801220621BDE8104024F0BD
:10575000ABBB00BF901D002008B5034824F0C8FC77
:10576000BDE80840FFF7E2BFB83603002DE9F84F67
:105770001646C888DFF89C80DFF89CB024F0B6FBA2
:1057800096F8049000254FF0000AA94501DCBDE819
:10579000F88F30462AF000FBC0F3C713044623BB42
:1057A000C71030462AF0F8FA04F0070440EA04244F
:1057B00024B24F2C13D130462AF0EEFAFAF7E2FD6C
:1057C00052465B46FAF748FEFBF758F8224643B2CA
:1057D00039460F4824F08CFC02353D44D5E722467B
:1057E0003946404624F084FCF6E730462AF0D4FAE5
:1057F000074630462AF0D0FA04F07F0440EA072238
:1058000092B221464046033524F072FC2544BCE7A1
:10581000AB380300D83803000000E03F70B5014604
:105820008EB028B12E480EB0BDE8704024F060BCA8
:105830002C4824F05DFCFFF705FF2B480478437BE0
:10584000827BC17B0C9444780B9484780A94C4784E
:105850000994047908944479079484790694C47966
:105860000594047A0494447A0394847A0294C47A62
:105870000194007B00901D4824F03AFC1C491D480F
:1058800029F096F8014608B11B48CCE71B4C1C4890
:1058900021881C4D24F02CFC25F0F6FF1A4824F03A
:1058A00027FC29F083F8064658B9184824F020FC54
:1058B000032013F0A9FA2E700EB0BDE8704024F05A
:1058C00040BB134824F014FC0123218811482B709D
:1058D00024F00EFC0EB0BDE8704024F020BB00BFE9
:1058E000D9360300FC3603009E380020163703002B
:1058F000D8190300001A03005E370300B402002029
:105900007F370300AE3800209C370300AD3703001B
:10591000D8370300FB37030010B5174824F0E8FB25
:105920001648174C22F0C6FE2060072124F0CFFA5B
:105930002068052124F0CBFA2068062124F0C7FA5C
:1059400024F011FB0F4A1048FF2313800F4A1380E5
:105950000F4A138024F0CCFB0E4805F041FB0146B2
:1059600020B10D48BDE8104024F0C2BB0B48BDE893
:10597000104024F0BDBB00BF193803003B380300C2
:10598000901D00206838002043380300663800204E
:10599000643800201D580000563803007438030096
:1059A00010B5094C0A44914200D110BD11F8013BD9
:1059B00043401809205C80EA0310C3B21809205C38
:1059C00080EA0310C0B2EEE704390300014B18600F
:1059D000704700BF2403002030B585B0CDE9010138
:1059E0000446002501A90548039500F0E7F8DDE924
:1059F00002309842B8BF255405B030BDCBA002009C
:105A00002DE9F84FB0F8189019F0080804460DD0A9
:105A100001290CBF49F0100949F02009A0F818909D
:105A200082F31188BFF36F8FBDE8F88F09F0070983
:105A3000022907D1204624F075FB0028F0D0012868
:105A4000238B4BD16769238B002F16DA2568C4E9B5
:105A5000008823F0070343F0010323830026238BF0
:105A600003F0070ACA4502D0A168002957D115B929
:105A7000002E00F08980002152E003F00701481F4A
:105A800001281CD823F00703062925689BB2C4E926
:105A900000880AD13DB1618B28460068013189B286
:105AA0000028FAD1618343F002032383204624F0C7
:105AB00039FB0028D2D0238B43F02003CDE7042903
:105AC0000AD123F0070399B22183204624F02AFB50
:105AD00010B141F0200121830025BFE7032809D13F
