:10000000C0590020E5930000DBF8020015940000C1
:1000100015940000159400001594000000000000E5
:100020000000000000000000000000000991000036
:100030001594000000000000B590000005E70200E4
:10004000A5930000DD560200A5930000A5930000D3
:10005000A5930000A5930000A5930000A5930000C0
:10006000A5930000A5930000A5930000A5930000B0
:10007000A5930000A5930000A5930000A5930000A0
:10008000A5930000A5930000A5930000A593000090
:10009000A5930000A5930000A5930000A593000080
:1000A000A5930000A5930000A5930000A593000070
:1000B000A5930000A5930000A5930000A593000060
:1000C000A5930000A5930000A5930000A593000050
:0C00D000A5930000A5930000A59300007C
:0400DC00FFFFFFFF24
:1000E00081F0004102E000BF83F0004330B54FEAE9
:1000F00041044FEA430594EA050F08BF90EA020F56
:100100001FBF54EA000C55EA020C7FEA645C7FEAE8
:10011000655C00F0E2804FEA5454D4EB5555B8BF0B
:100120006D420CDD2C4480EA020281EA030382EA7C
:10013000000083EA010180EA020281EA0303362D0E
:1001400088BF30BD11F0004F4FEA01314FF4801CE1
:100150004CEA113102D0404261EB410113F0004FF3
:100160004FEA03334CEA133302D0524263EB4303AA
:1001700094EA050F00F0A780A4F10104D5F1200E48
:100180000DDB02FA0EFC22FA05F2801841F10001A3
:1001900003FA0EF2801843FA05F359410EE0A5F177
:1001A00020050EF1200E012A03FA0EFC28BF4CF0A8
:1001B000020C43FA05F3C01851EBE37101F000455E
:1001C00007D54FF0000EDCF1000C7EEB00006EEB6B
:1001D0000101B1F5801F1BD3B1F5001F0CD34908F5
:1001E0005FEA30004FEA3C0C04F101044FEA44524C
:1001F00012F5800F80F09A80BCF1004F08BF5FEAD3
:10020000500C50F1000041EB045141EA050130BDB2
:100210005FEA4C0C404141EB010111F4801FA4F155
:100220000104E9D191F0000F04BF01460020B1FAAA
:1002300081F308BF2033A3F10B03B3F120020CDAE2
:100240000C3208DD02F1140CC2F10C0201FA0CF0C0
:1002500021FA02F10CE002F11402D8BFC2F1200C25
:1002600001FA02F120FA0CFCDCBF41EA0C019040DB
:10027000E41AA2BF01EB0451294330BD6FEA040424
:100280001F3C1CDA0C340EDC04F11404C4F120020F
:1002900020FA04F001FA02F340EA030021FA04F321
:1002A00045EA030130BDC4F10C04C4F1200220FA78
:1002B00002F001FA04F340EA0300294630BD21FAB6
:1002C00004F0294630BD94F0000F83F4801306BF7C
:1002D00081F480110134013D4EE77FEA645C18BF70
:1002E0007FEA655C29D094EA050F08BF90EA020F07
:1002F00005D054EA000C04BF1946104630BD91EAFF
:10030000030F1EBF0021002030BD5FEA545C05D101
:100310004000494128BF41F0004130BD14F5800440
:100320003CBF01F5801130BD01F0004545F0FE41B4
:1003300041F470014FF0000030BD7FEA645C1ABFE9
:10034000194610467FEA655C1CBF0B46024650EA20
:10035000013406BF52EA033591EA030F41F400214C
:1003600030BD00BF90F0000F04BF0021704730B5D2
:100370004FF4806404F132044FF000054FF00001A7
:1003800050E700BF90F0000F04BF0021704730B568
:100390004FF4806404F1320410F0004548BF40423D
:1003A0004FF000013EE700BF42004FEAE2014FEA92
:1003B00031014FEA02701FBF12F07F4393F07F4F6D
:1003C00081F06051704732F07F4208BF704793F070
:1003D0007F4F04BF41F40021704730B54FF4607483
:1003E00001F0004521F000411CE700BF50EA010286
:1003F00008BF704730B54FF000050AE050EA01022F
:1004000008BF704730B511F0004502D5404261EB9E
:1004100041014FF4806404F132045FEA915C3FF4DF
:10042000D8AE4FF003025FEADC0C18BF03325FEA7C
:10043000DC0C18BF033202EBDC02C2F1200300FA2D
:1004400003FC20FA02F001FA03FE40EA0E0021FA52
:1004500002F11444BDE600BF70B54FF0FF0C4CF440
:10046000E06C1CEA11541DBF1CEA135594EA0C0FF2
:1004700095EA0C0F00F0DEF82C4481EA030621EA2D
:100480004C5123EA4C5350EA013518BF52EA033568
:1004900041F4801143F4801338D0A0FB02CE4FF01A
:1004A0000005E1FB02E506F00042E0FB03E54FF04A
:1004B0000006E1FB03569CF0000F18BF4EF0010E42
:1004C000A4F1FF04B6F5007F64F5407404D25FEA3E
:1004D0004E0E6D4146EB060642EAC62141EA5551F1
:1004E0004FEAC52040EA5E504FEACE2EB4F1FD0C33
:1004F00088BFBCF5E06F1ED8BEF1004F08BF5FEAB1
:10050000500E50F1000041EB045170BD06F0004662
:1005100046EA010140EA020081EA0301B4EB5C040F
:10052000C2BFD4EB0C0541EA045170BD41F4801107
:100530004FF0000E013C00F3AB8014F1360FDEBF2C
:10054000002001F0004170BDC4F10004203C35DA08
:100550000C341BDC04F11404C4F1200500FA05F38B
:1005600020FA04F001FA05F240EA020001F000422C
:1005700021F0004110EBD37021FA04F642EB0601A2
:100580005EEA430E08BF20EAD37070BDC4F10C04CC
:10059000C4F1200500FA04F320FA05F001FA04F290
:1005A00040EA020001F0004110EBD37041F100017C
:1005B0005EEA430E08BF20EAD37070BDC4F1200587
:1005C00000FA05F24EEA020E20FA04F301FA05F2EF
:1005D00043EA020321FA04F001F0004121FA04F297
:1005E00020EA020000EBD3705EEA430E08BF20EA67
:1005F000D37070BD94F0000F0FD101F000464000A1
:1006000041EB010111F4801F08BF013CF7D041EA22
:10061000060195F0000F18BF704703F00046520026
:1006200043EB030313F4801F08BF013DF7D043EAF7
:100630000603704794EA0C0F0CEA135518BF95EAAD
:100640000C0F0CD050EA410618BF52EA4306D1D134
:1006500081EA030101F000414FF0000070BD50EA53
:10066000410606BF1046194652EA430619D094EADD
:100670000C0F02D150EA013613D195EA0C0F05D1C7
:1006800052EA03361CBF104619460AD181EA03011B
:1006900001F0004141F0FE4141F470014FF00000D3
:1006A00070BD41F0FE4141F4780170BD70B54FF06E
:1006B000FF0C4CF4E06C1CEA11541DBF1CEA1355EE
:1006C00094EA0C0F95EA0C0F00F0A7F8A4EB0504D0
:1006D00081EA030E52EA03354FEA013100F08880C7
:1006E0004FEA03334FF0805545EA131343EA126390
:1006F0004FEA022245EA111545EA10654FEA002645
:100700000EF000419D4208BF964244F1FD0404F5FD
:10071000407402D25B084FEA3202B61A65EB030559
:100720005B084FEA32024FF480104FF4002CB6EB16
:10073000020E75EB030E22BFB61A754640EA0C0096
:100740005B084FEA3202B6EB020E75EB030E22BFD6
:10075000B61A754640EA5C005B084FEA3202B6EB17
:10076000020E75EB030E22BFB61A754640EA9C00D6
:100770005B084FEA3202B6EB020E75EB030E22BFA6
:10078000B61A754640EADC0055EA060E18D04FEA64
:10079000051545EA16754FEA06164FEAC30343EA04
:1007A00052734FEAC2025FEA1C1CC0D111F4801FD1
:1007B0000BD141EA00014FF000004FF0004CB6E7CA
:1007C00011F4801F04BF01430020B4F1FD0C88BF69
:1007D000BCF5E06F3FF6AFAEB5EB030C04BFB6EB74
:1007E000020C5FEA500C50F1000041EB045170BD67
:1007F0000EF0004E4EEA113114EB5C04C2BFD4EB94
:100800000C0541EA045170BD41F480114FF0000E17
:10081000013C90E645EA060E8DE60CEA135594EA93
:100820000C0F08BF95EA0C0F3FF43BAF94EA0C0F96
:100830000AD150EA01347FF434AF95EA0C0F7FF40B
:1008400025AF104619462CE795EA0C0F06D152EA5F
:1008500003353FF4FDAE1046194622E750EA410643
:1008600018BF52EA43067FF4C5AE50EA41047FF454
:100870000DAF52EA43057FF4EBAE12E74FF0FF3CB9
:1008800006E000BF4FF0010C02E000BF4FF0010C8A
:100890004DF804CD4FEA410C7FEA6C5C4FEA430C03
:1008A00018BF7FEA6C5C1BD001B050EA410C0CBF52
:1008B00052EA430C91EA030F02BF90EA020F0020B4
:1008C000704710F1000F91EA030F58BF994208BF1B
:1008D00090422CBFD8176FEAE37040F001007047D8
:1008E0004FEA410C7FEA6C5C02D150EA013C07D12F
:1008F0004FEA430C7FEA6C5CD6D152EA033CD3D07A
:100900005DF8040B704700BF8446104662468C4673
:100910001946634600E000BF01B5FFF7B7FF0028A6
:1009200048BF10F1000F01BD4DF808EDFFF7F4FFCF
:100930000CBF012000205DF808FB00BF4DF808ED5A
:10094000FFF7EAFF34BF012000205DF808FB00BF7D
:100950004DF808EDFFF7E0FF94BF012000205DF89F
:1009600008FB00BF4DF808EDFFF7CEFF94BF012054
:1009700000205DF808FB00BF4DF808EDFFF7C4FF4D
:1009800034BF012000205DF808FB00BF4FEA4102A0
:1009900012F5001215D211D56FF47873B3EB6252D1
:1009A00012D94FEAC12343F0004343EA505311F0F8
:1009B000004F23FA02F018BF404270474FF000008A
:1009C000704750EA013005D111F0004008BF6FF0C8
:1009D000004070474FF00000704700BF4A0011D23E
:1009E00012F5001211D20DD56FF47873B3EB625289
:1009F0000ED44FEAC12343F0004343EA505323FA95
:100A000002F070474FF00000704750EA013002D109
:100A10004FF0FF3070474FF00000704780F000400B
:100A200002E000BF81F0004142001FBF5FEA4103C6
:100A300092EA030F7FEA226C7FEA236C6AD04FEAC6
:100A40001262D2EB1363C1BFD2184140484041400B
:100A5000B8BF5B42192B88BF704710F0004F40F4BD
:100A6000000020F07F4018BF404211F0004F41F4D9
:100A7000000121F07F4118BF494292EA030F3FD0A5
:100A8000A2F1010241FA03FC10EB0C00C3F12003B8
:100A900001FA03F100F0004302D5494260EB400047
:100AA000B0F5000F13D3B0F1807F06D340084FEAB2
:100AB000310102F10102FE2A51D2B1F1004F40EBA7
:100AC000C25008BF20F0010040EA0300704749000F
:100AD00040EB000010F4000FA2F10102EDD1B0FADA
:100AE00080FCACF1080CB2EB0C0200FA0CF0AABFCF
:100AF00000EBC25052421843BCBFD040184370476D
:100B000092F0000F81F4000106BF80F40000013272
:100B1000013BB5E74FEA41037FEA226C18BF7FEA49
:100B2000236C21D092EA030F04D092F0000F08BF8B
:100B30000846704790EA010F1CBF0020704712F072
:100B40007F4F04D1400028BF40F00040704712F1B1
:100B500000723CBF00F50000704700F0004343F016
:100B6000FE4040F4000070477FEA226216BF08464C
:100B70007FEA23630146420206BF5FEA412390EA0F
:100B8000010F40F4800070474FF0000304E000BF05
:100B900010F0004348BF40425FEA000C08BF7047B6
:100BA00043F0964301464FF000001CE050EA01027A
:100BB00008BF70474FF000030AE000BF50EA01028F
:100BC00008BF704711F0004302D5404261EB41017C
:100BD0005FEA010C02BF84460146002043F0B643A1
:100BE00008BFA3F18053A3F50003BCFA8CF2083AC6
:100BF000A3EBC25310DB01FA02FC634400FA02FCCF
:100C0000C2F12002BCF1004F20FA02F243EB0200D5
:100C100008BF20F00100704702F1200201FA02FC37
:100C2000C2F1200250EA4C0021FA02F243EB02002A
:100C300008BF20EADC7070474FF0FF0C1CEAD0526E
:100C40001EBF1CEAD15392EA0C0F93EA0C0F6FD02F
:100C50001A4480EA010C400218BF5FEA41211ED00D
:100C60004FF0006343EA501043EA5111A0FB0131F9
:100C70000CF00040B1F5000F3EBF490041EAD371CE
:100C80005B0040EA010062F17F02FD2A1DD8B3F14A
:100C9000004F40EBC25008BF20F00100704790F0B9
:100CA000000F0CF0004C08BF49024CEA502040EA0B
:100CB00051207F3AC2BFD2F1FF0340EAC2507047D1
:100CC00040F400004FF00003013A5DDC12F1190F0F
:100CD000DCBF00F000407047C2F10002410021FA81
:100CE00002F1C2F1200200FA02FC5FEA310040F199
:100CF000000053EA4C0308BF20EADC70704792F012
:100D0000000F00F0004C02BF400010F4000F013A49
:100D1000F9D040EA0C0093F0000F01F0004C02BF44
:100D2000490011F4000F013BF9D041EA0C018FE7B3
:100D30000CEAD15392EA0C0F18BF93EA0C0F0AD0B9
:100D400030F0004C18BF31F0004CD8D180EA0100DF
:100D500000F00040704790F0000F17BF90F0004F78
:100D6000084691F0000F91F0004F14D092EA0C0F5A
:100D700001D142020FD193EA0C0F03D14B0218BFED
:100D8000084608D180EA010000F0004040F0FE4033
:100D900040F40000704740F0FE4040F440007047CF
:100DA0004FF0FF0C1CEAD0521EBF1CEAD15392EA4E
:100DB0000C0F93EA0C0F69D0A2EB030280EA010C3E
:100DC00049024FEA402037D04FF0805343EA1111D7
:100DD00043EA10130CF000408B4238BF5B0042F135
:100DE0007D024FF4000C8B4224BF5B1A40EA0C00DA
:100DF000B3EB510F24BFA3EB510340EA5C00B3EB0C
:100E0000910F24BFA3EB910340EA9C00B3EBD10FF9
:100E100024BFA3EBD10340EADC001B0118BF5FEA4B
:100E20001C1CE0D1FD2A3FF650AF8B4240EBC25074
:100E300008BF20F0010070470CF0004C4CEA502035
:100E40007F32C2BFD2F1FF0340EAC250704740F484
:100E500000004FF00003013A37E792F0000F00F076
:100E6000004C02BF400010F4000F013AF9D040EAF4
:100E70000C0093F0000F01F0004C02BF490011F488
:100E8000000F013BF9D041EA0C0195E70CEAD15380
:100E900092EA0C0F08D142027FF47DAF93EA0C0F67
:100EA0007FF470AF084676E793EA0C0F04D14B024B
:100EB0003FF44CAF08466EE730F0004C18BF31F0FD
:100EC000004CCAD130F000427FF45CAF31F00043F7
:100ED0007FF43CAF5FE700BF4FF0FF3C06E000BF90
:100EE0004FF0010C02E000BF4FF0010C4DF804CDB3
:100EF0004FEA40024FEA41037FEA226C18BF7FEAC3
:100F0000236C11D001B052EA530C18BF90EA010FC4
:100F100058BFB2EB030088BFC81738BF6FEAE17053
:100F200018BF40F0010070477FEA226C02D15FEAEF
:100F3000402C05D17FEA236CE4D15FEA412CE1D05B
:100F40005DF8040B704700BF844608466146FFE722
:100F50000FB5FFF7C9FF002848BF10F1000F0FBD04
:100F60004DF808EDFFF7F4FF0CBF012000205DF8FD
:100F700008FB00BF4DF808EDFFF7EAFF34BF012082
:100F800000205DF808FB00BF4DF808EDFFF7E0FF1B
:100F900094BF012000205DF808FB00BF4DF808ED6C
:100FA000FFF7D2FF94BF012000205DF808FB00BFCF
:100FB0004DF808EDFFF7C8FF34BF012000205DF8B1
:100FC00008FB00BF53B94AB9002908BF00281CBF5D
:100FD0004FF0FF314FF0FF3000F086B9ADF1080C53
:100FE0006DE904CE00F01AF8DDF804E0DDE9022333
:100FF00004B07047430803F05533C01A830803F068
:10100000333300F03330184400EB101000F00F3091
:1010100000EB002000EB0040000E70472DE9F04788
:10102000089E04468846002B4BD18A42154667D954
:10103000B2FA82F24AB1C2F1200701FA02F320FAB1
:1010400007F7954047EA030894404FEA154E230CF2
:10105000B8FBFEF71FFA85FC0EFB178843EA08432E
:1010600007FB0CF1994209D9EB1807F1FF3080F02A
:101070001B81994240F21881023F2B445B1AA4B2B3
:10108000B3FBFEF00EFB103344EA034400FB0CFC00
:10109000A44509D92C1900F1FF3380F00781A4453C
:1010A00040F2048102382C4440EA0740A4EB0C04CF
:1010B00000271EB1D4400023C6E900433946BDE8ED
:1010C000F0878B4209D9002E00F0EB800027C6E99B
:1010D000000138463946BDE8F087B3FA83F7002FA0
:1010E00047D18B4202D3824200F2FA80841A61EB2C
:1010F000030301209846002EE0D0C6E90048DDE752
:1011000002B9FFDEB2FA82F2002A40F08F80491B5A
:101110004FEA154E1FFA85F80127B1FBFEFC230CA0
:101120000EFB1C1143EA014308FB0CF1994207D95D
:10113000EB180CF1FF3002D2994200F2CD808446C8
:10114000591AA3B2B1FBFEF00EFB101443EA04449B
:1011500008FB00F8A04507D92C1900F1FF3302D293
:10116000A04500F2B6801846A4EB080440EA0C4003
:101170009FE7C7F1200CBB4022FA0CFE4EEA030E9B
:1011800001FA07F420FA0CF521FA0CF34FEA1E4895
:101190002543B3FBF8F92C0C08FB19331FFA8EFA20
:1011A00044EA034309FB0AF49C4202FA07F200FAFC
:1011B00007F10BD91EEB030309F1FF3080F08780A4
:1011C0009C4240F28480A9F1020973441B1BADB21A
:1011D000B3FBF8F008FB103345EA034400FB0AFABE
:1011E000A24508D91EEB040400F1FF336BD2A245DF
:1011F00069D90238744440EA0940A0FB0289A4EB93
:101200000A044C45C2464B4654D351D0002E69D0F7
:10121000B1EB0A0564EB030404FA0CFCFD40FC404E
:101220004CEA0505C6E90054002747E7C2F1200350
:1012300020FA03F7954001FA02F021FA03F34FEA8E
:10124000154E3843010CB3FBFEF71FFA85F80EFB71
:10125000173341EA034107FB08F38B4204FA02F417
:1012600007D9691807F1FF3C2FD28B422DD9023FD5
:101270002944CB1A81B2B3FBFEF00EFB103341EAD6
:10128000034100FB08F38B4207D9691800F1FF3CCA
:1012900017D28B4215D902382944C91A40EA0747A8
:1012A0003BE73746304609E70746E7E61846FBE6E0
:1012B0004145ABD2B8EB020A69EB0E020138134686
:1012C000A4E76046E9E7184695E76746D1E7814617
:1012D0007CE702382C4447E7ACF1020C2B442FE7A3
:1012E000384608E73746E9E6704700BF00000000CF
:1012F0002DE9F043504C85B0206883683821DB68C5
:101300009847002805DA4D482BF0C3FC05B0BDE82E
:10131000F083206883686A461B690D21984700287E
:1013200001DA4748F0E72068836802AA1B691021A8
:101330009847002801DA4348E6E70198FFF722F8CA
:101340003BA3D3E90023FFF7B1F9044600980D460B
:10135000FFF718F802460B4620462946FEF7C6FE60
:10136000394B3A4D002206460F46FFF775F8FFF756
:101370000DFB0A2490FBF4F104FB110234482BF01E
:1013800088FC0398FEF7FEFF29A3D3E90023FFF7AB
:101390008DF9804602988946FEF7F4FF02460B4617
:1013A00040464946FEF7A2FE274B0022FFF754F8BD
:1013B000FFF7ECFA90FBF4F104FB11022548264CF0
:1013C0002BF067FC32463B4630463946FEF78EFE30
:1013D000FFF7DCFA5221A870206930F0DBFD297894
:1013E000206931F053F86978206931F04FF8A97815
:1013F00020691A4D31F04AF8194815F077F904467A
:1014000050B1014617482BF044FC7D3404D11648F6
:101410002BF03FFC00232B702B78002B3FF476AF92
:101420004FF4A022002311482AF0AEFC6EE700BF63
:101430000000000080842E41541F00201F6503001F
:101440003B6503006365030000002440F50C0020A9
:1014500088650300A565030010010020F40C00203E
:1014600040040020C2650300F3650300281100203A
:101470002DE9F843DDE908458046894616461F46B2
:101480000022002320462946FFF758FA38B12046AB
:1014900029460022364BFEF729FE04460D4600225F
:1014A000334B20462946FFF767FA38B120462946D4
:1014B00000222F4BFEF718FE04460D4600222D4B4E
:1014C00020462946FEF7C8FF0022294BFFF736FACF
:1014D000B8B142464B4630463946FEF705FE00227B
:1014E000244BFEF7B9FF22462B46FEF7B5FF4246D6
:1014F0004B46FEF7FBFD06460F4630463946BDE833
:10150000F88322462B4620462946FEF7EFFD0022AF
:10151000174BFFF713FA0028EFD10022164B204695
:101520002946FEF799FF00224FF08043FFF706FAA5
:10153000B8B142464B4630463946FEF7D5FD224605
:1015400006460F462B4608A1D1E90001FEF7CCFD67
:1015500002460B4630463946FEF77EFF0022054B19
:10156000C3E746464F46C8E7000000605555E53FD3
:101570000000F03F0000184000000840000000009C
:101580002DE9F04F87B013460D46144602900A46E7
:1015900001466748DFF8B0B1DFF8B0A12BF079FB66
:1015A0002846FFF7F5FA6349FFF7FAFB064620469F
:1015B000FFF7EEFA5F49FFF7F3FB8046FEF7F4FE14
:1015C00004460D4630460021FFF7CAFCD8B154A3AB
:1015D000D3E9002320462946FEF73EFFFFF7FEF938
:1015E00080B2ABF80000AAF80000534BBAF8002014
:1015F0001880514BBBF800101B88504807B0BDE85D
:10160000F04F2BF046BB3046FEF7CEFE06460F46A7
:1016100040464FF07C51FFF7ADFC00286AD0002215
:10162000474B30463946FEF761FD22462B46FEF712
:1016300013FF804602988946FFF7AAFA3D49FFF753
:10164000AFFBFEF7B1FE224606460F462B4620466C
:101650002946FEF74BFD42464B46FEF745FD32A3B9
:10166000D3E9002304460D4630463946FEF73EFDD9
:101670004246CDE900014B4620462946FFF7F8FED9
:101680004246CDE902014B46CDE900672046294696
:10169000FFF7EEFE24A3D3E90023CDE90401304691
:1016A0003946FEF721FD4246CDE900014B46204672
:1016B0002946FFF7DDFE002204460D46214BDDE9F9
:1016C0000201FEF7C9FEFFF789F90022ABF800001E
:1016D0001C4BDDE90401FEF7BFFEFFF77FF9002296
:1016E000AAF80000174B20462946FEF7B5FEFFF783
:1016F00075F97AE722462B4630463946FEF7F6FC66
:101700002246804689462B4630463946FEF7A4FEDF
:1017100002460B4640464946FEF7E6FC89E700BF15
:101720000000000000E06F40000000605555D53F0C
:101730000862030000FF7F47503A00203762030031
:101740000000F03F00007040543A0020523A002060
:101750002DE9F0410F46D0E90B15866A4C1930345B
:10176000A642904618D9144C11A3D3E90023A6FB36
:101770000401FFF727FC303520F07F4038600CA3D0
:10178000D3E90023A5FB0401FFF71CFC20F07F40F8
:10179000C8F80000BDE8F081074D05A3D3E9002398
:1017A000A1FB0501FFF70EFCA41BE5E7AFF30080EA
:1017B0008D49FD1A0700000000CA9A3B0000000096
:1017C0002DE9F04FC94C94F84A508DB005F0010551
:1017D000002800F03E81002D40F0838194F82920FC
:1017E00094F8353094F8250004EB820204EB83036F
:1017F000FF2100F0030084F82610D66AD3F8388061
:1018000023F03CF994F84A00420700F1148286B1B3
:101810003146B64820F018FF33785B0605D506211F
:101820001BF06EFE002800F0A6824146AF4820F073
:101830000BFF337803F00F03012B00F26181236A61
:10184000002B40F04E811FF0B5FF8146002800F0CC
:1018500054821FF0BBFF8246002800F0A68221F0D0
:101860007FFC0546002800F09D82406F4FF6FF7315
:101870002B8505F11C0B002800F09C8205F1680205
:1018800005F164011BF048FE95F8603095F87A7018
:1018900095F83C1095F8390095F8D8204FF0010CD8
:1018A00003F0F7036CF302036CF3061385F8603062
:1018B00095F8613007F0FC0E01F0FC0100276CF395
:1018C000020367F3820160F07F0002F0FC0267F31D
:1018D000820E4FF01B0C67F3820285F8613067F3CC
:1018E00086104FF4A47385F83C10062185F87AE041
:1018F00085F8D820A5F858C0A5F85AC0A5F85C30DE
:10190000A5F85E3085F83900A5F8C0106F6785F836
:10191000787085F8797085F83B706F86EF852F8633
:10192000C5E912772F65A5F8C470A5F8C870A5F8A9
:10193000D070A5F8CC70A5F8E47085F8E670C5F80D
:101940000871A5F80C71A5F820711EF0DDFE05F5F3
:101950009472C2E9000105F5987300200021C3E9E3
:10196000000195F83A2195F87A1095F8663195F8C6
:1019700086C195F8AE0185F8397101F0EF0102F0EA
:10198000FD0203F0FC0367F3C30167F3000267F392
:10199000041C67F3820367F3C30085F87A1085F8A7
:1019A0003A2185F886C185F8663185F83871A5F841
:1019B000407185F8437185F8657185F8647185F823
:1019C000D970A5F88471C5F8E070A5F8AC71A5F8D8
:1019D000B871C5F8449185F8AE0121F00BFFA5F868
:1019E000D20021F00DFF95F8BF31A5F8D40003F027
:1019F000F70367F3000385F8BF31A5F8BC7121F048
:101A000005FF95F8C03160F3020385F8C03121F07D
:101A100003FF95F8C031C4F820B060F3C503C4E9F2
:101A2000109AC5F8D471C5F8D071C5F8CC71C5F855
:101A3000C871C5F8C47185F8C0312F70C5E9057744
:101A4000ED6124F079FA00285AD020F0BDFB032084
:101A500048E0002D45D0236A53B193F8202042F08E
:101A6000020283F82020236A93F82030D80738D464
:101A70001E481FF079FF84420CD040F60B031C4A2D
:101A80001C491D482BF005F9404080F311884FF0A8
:101A9000030002DF94F82430D90700F1E6800BAD93
:101AA00002210A460B9100950321144B00201DF0E2
:101AB000AFF829461FF030FF002800F0F0800B48F7
:101AC0001FF05CFF84420CD040F62403084A094909
:101AD00009482BF0DEF8404080F311884FF00300F6
:101AE00002DF0C200DB0BDE8F08F00BF1C2E0020DF
:101AF00018520300145303004C4D0300B9070200B1
:101B000094F824300CA8C3F3420300F8043D0121EB
:101B10001BF076FE002800F0A180337803F00F035D
:101B2000022B00F1FF3100F01B81012B00F0E0805F
:101B300098F801201032D200002B40F02C817078F0
:101B40001030C000024402F54D7300F59A7000FB9E
:101B50000133A148E46100253127A3FB0001C4E95A
:101B600002759BA3D3E900232570C4E90555656080
:101B7000FFF728FA2061B4F848801DF08FF8074677
:101B8000B8F1000F07D1357805F00F05A5F1010573
:101B9000B5FA85F56D0994F82400D4F810C065F302
:101BA000000010F0010684F8240000F0A8800CADBD
:101BB000022645F8086D0020884BDFF8288205933F
:101BC00003210694CDF810C0CDF804C00895324624
:101BD000CDF81C80CDE9020000903B461CF090FF40
:101BE00029461FF099FE002838D17D4905914AF217
:101BF000D8320092CDE907850694CDE90300CDE9FE
:101C000001003B46012203210A961CF079FF294678
:101C10001FF082FE10BB94F84A3043F0010384F8B1
:101C20004A3020F023FE044600285FD1012022F034
:101C300007FF204656E7C0F3C0002A4604F14B01D7
:101C400023F0B6F8FF2884F826003FF4E0AD2846DC
:101C500022F05AFF002E7FF4DBADEAE5236A002B69
:101C60003FF43FAF20F0B0FA3BE70CAD022345F85C
:101C7000043D03215B4B0095012200201CF0C8FFAE
:101C800029461FF049FE00283FF40AAF56481FF0CE
:101C900075FE84423FF425AF40F6160316E753481D
:101CA0001FF09AFE002868D14F481FF067FE84425B
:101CB0000CD040F62D034E4A4E494F482AF0E9FF1A
:101CC000404080F311884FF0030002DF236A0BB11C
:101CD00020F07AFA94F84A306FF3000384F84A301F
:101CE000002020F0C3FD04460028A0D00020F9E623
:101CF0004FF47F734FF4F27029E70720F2E63F4B71
:101D00003F48CDF810C01FFA88F80CF2471C069423
:101D10000CADC3F800C0A8FB00014FF0910C0CFB08
:101D200008114FF0020845F8088D2E4ADFF8ACE0A4
:101D300009934FF6FF7CCDE9072525A3D3E90023BE
:101D40000296CDF814E0CDF80CC0FFF73BF94246FF
:101D5000CDE900603B46304603211CF079FE56E792
:101D600073781033DB0000FB03F000F5AA706423E6
:101D700003FB0103EDE61220B4E640F62A031C4AF9
:101D800020491D482AF085FF404080F311884FF01C
:101D9000030002DF88E7062B10D04FF41B734FF4CB
:101DA000DA70D4E650461FF017FD48461FF008FDD4
:101DB000072097E605F16C0068675FE570781030E2
:101DC000C00000F54D73134400F59A70BFE600BFE4
:101DD0008D49FD1A0700000000CA9A3B551E0200FB
:101DE00069200200B90702001C2E0020382E0020B6
:101DF00018520300145303004C4D0300702E0020B2
:101E0000002AE784085003002DE9F047184D9DF89B
:101E100020C095F8304014F001081ED195F82060DC
:101E2000DFF850E069851FFA82F960F3451663F325
:101E30004204A9FB0E016CF3C406912303FB0911B4
:101E400085F8304008A3D3E9002385F82060FFF728
:101E5000B9F8E8624046BDE8F0874FF00C0840460C
:101E6000BDE8F087AFF300808D49FD1A0700000040
:101E7000942E0020002AE7842DE9F04F044600F15B
:101E8000230190F8300094F82030C0F3400060F354
:101E900086138DB084F820301CF006FF94F82030B3
:101EA000668D4348E46103F0F9030025A6FB0001B9
:101EB00091226FF3C71302FB061184F820302570BE
:101EC00039A3D3E90023C4E90555FFF77BF8E36A9A
:101ED000656007460933A7F1310293424FF03101A3
:101EE00032BF23612561E562C4E902151CF0D6FE0C
:101EF000304D0694B4F82AA02F49DFF8C0C0DFF8AF
:101F0000C0E081462A480CAE651BA1FB05354FF0A9
:101F10000208AAFB0001912346F8048D03FB0A1175
:101F2000236904934FF0000A1FA3D3E90023CDF8DF
:101F30001CC0CDF814E00896CDF80CA0FFF742F8CD
:101F4000104619464FF47A720023FFF73BF82D092B
:101F50000435EDB22A4602904B460321CDF800A08D
:101F6000504601971CF0CCFD31461FF0D5FC0546CC
:101F700068B994F8303043F0010384F8303020F031
:101F8000DFFA044638B128460DB0BDE8F08F0C20CA
:101F90000DB0BDE8F08F404622F052FD20460DB056
:101FA000BDE8F08FAFF300808D49FD1A07000000F7
:101FB000002AE784942E00204FECC44EB90702009B
:101FC000A9260200000000000B68DA881AB101227D
:101FD0001A71002070472DE9F04F804687B00F46F8
:101FE000D1484FF4F0711BF073FA038D0546CBBB5B
:101FF0003E6890F86611327F12F0030201F0010092
:1020000000F08C80022A34D906F11C0296F81F9049
:10201000002800F08A8095F93930002B01F0040087
:10202000C0F22084002800F02A84B9F1020F00F0E9
:102030002A84B9F10B0F00F06B84B9F1040F27D09B
:10204000B9F1050F24D0B9F1060F00F03184B9F1D0
:102050000D0F00F0B783B9F1110F00F070833D232D
:1020600085F843313B6801221A71002007B0BDE8B2
:10207000F08F00284ED03D2285F843213A68012197
:1020800018461171F2E795F93930002BC0F29284AD
:1020900095F8D84004F00204002C39D1A3481BF075
:1020A000E5F9002800F02F8595F8D820037942F053
:1020B000020285F8D82002224271D5F8C41180F8B6
:1020C000089043F0030307220371C271002900F056
:1020D000BC8395F866319A0700F1B78395F8BF3154
:1020E000DB0700F1B283D5F8D031994200F0A1842A
:1020F000D5F8C831002B00F0AD84D5F8CC311A6882
:10210000026018600168C5F8CC0109B9C5F8D401AE
:1021100001233371002007B0BDE8F08F0028F7D00D
:102120003D2385F843313E68F2E7B9F1180FAFD887
:1021300001A353F829F000BFFD240000BF220000D6
:1021400087280000A52600009120000091200000B3
:10215000B1280000FF270000C9230000352300003C
:10216000DD250000D133000031260000C527000026
:102170009120000091220000912000003F270000E4
:102180007522000061220000E7210000E721000025
:102190009D2100009120000087200000737F032B09
:1021A0007FF476AF95F93930002BC0F20E8695F8A2
:1021B000BD2195F8BC118A4200F0588495F8BE31D3
:1021C00003F00303013B022B00F2508495F8D83052
:1021D0009B079DD4314628462323162207B0BDE82D
:1021E000F04F20F097BE737F092B7FF451AFB9F108
:1021F000140F00F08C8495F8AC1195F8AD21019185
:102200008A42B5F85A30B5F858E0B5F85EA0B5F88E
:102210005CB001F0A88095F8AE2102F00702012A17
:1022200041F2A1800021022A00F0928496F81F90CA
:10223000B9F1150F3FF46EAF08463C491BF030F979
:1022400095F8AE3195F8D82003F007036FF34102FB
:10225000042B85F8D8207FF45DAF6FF00F0005E701
:10226000727F012A7FF414AF0023A5F8C830184606
:102270003271FBE6777F95F8D840012F04F0020415
:102280007FF40AAF002C00F05E8637710020EDE687
:10229000737F182B7FF4FCAE254C23680193002B31
:1022A00000F0FF839D4200F0FC8395F8D8309F0733
:1022B0003FF52EAF3146284620230F228EE795F9B1
:1022C0003930002BBFF6E4AE737F082B7FF4E0AE0D
:1022D000B6F825406B8EE31A1F0401F1198095F8BA
:1022E000E43095F8E5209B1A03F00303022B01F07C
:1022F0000780052206F1200105F1E9002DF0C4FB5D
:1023000095F8E82095F8E530A5F8EE4002206FF347
:102310000002023B012185F8E60085F8E82085F8F7
:10232000E53000203171A1E6701A0020682F0020EE
:10233000DC2E0020737F092B7FF4AAAE716A306A0D
:102340000FF24C39D9E9008905F59474D4E90023DA
:1023500001F00F0B40EA08004BEA090102EA00070E
:1023600003EA0108C4E90078D6F82080D6F8249062
:102370001EF0CAF908F0FF0343F0D00628F0FF0270
:1023800000EA0608C44E09F00F030024002701EA02
:10239000040942EA060043EA070140EA080241EA6A
:1023A000090305F59871C1E9002395F8D82095F83F
:1023B000203185F8213142F00102002385F8D82030
:1023C000A5F8C830184651E695F9393095F8D84047
:1023D000002B04F00204BFF65FAE737F0193092B5C
:1023E0007FF45AAE002C7FF493AEAC481BF03EF85D
:1023F0000746002800F0878395F8D83043F00203A1
:1024000085F8D830336AA2A1D1E900019B4605F5D1
:10241000947A736ADAE9008903F00F034BEA000B40
:1024200043EA010C0BEA08020CEA0903CAE900239B
:10243000336A9846736A9946C3461EF065F908F0F8
:10244000FF08CC464FF0000948F0D0024B46CDE9DA
:10245000022395F8D8300493DDE9022302402BF0E3
:10246000FF0893468C4A97F804E00B4042EA0800C4
:102470000CF00F095A469C46002343EA0901024327
:10248000634604980B4305F59871C1E9002340F0B9
:10249000010C019B85F8D8C04EF0030E08227B7119
:1024A000FB7187F804E0B81821462DF01AFB1EF0E6
:1024B0002BF995F828817C734FF0000968F0FF0232
:1024C00000EA020849F00F0301EA03094FEA184342
:1024D0004FEA132CC8F307222846BB7287F80880FE
:1024E00087F80C90BC73FC7387F80BC07A7239467E
:1024F00020F094FD012320463371B7E595F939307A
:10250000002BBFF6C5AD737F0C2B7FF4C1ADB6F8C1
:1025100029006B8EC31A1B0400F1FA8695F8E4308B
:1025200095F8E5209B1A03F00303022B00F0E886E0
:102530005B4B1A68002A00F0228796F8203085F855
:102540001C31B6F8211095F80E3140F2E24202FB40
:1025500001F2C5F8182196F8241096F8232042EAD3
:102560000122A5F8102196F8261096F8252042EAB7
:102570000122A5F8122196F8271096F8284095F820
:102580000D21A5F8E80003F0F803D5F8080143F0A1
:102590000803013A41EA042185F80D2185F80E313E
:1025A000A5F81411C8F804003B68C3F800803B6824
:1025B000C5F8083100233B6095F8842195F88531F2
:1025C000934206D095F8863103F00703042B00F000
:1025D000D9860023A5F8C830184647E595F9393063
:1025E000002BBFF655AD747F012C7FF451AD2B4805
:1025F0001AF03CFF0146002800F0858295F866211C
:1026000095F87A000B7942F0050285F866216FF3A0
:10261000C30043F003030B2285F87A002846CA71F1
:102620004C710B71002220F0D3F9347100201DE5AC
:10263000747F062C7FF42CAD95F83A31DA0740F11F
:10264000C38513F002037FF463AD95F83821A5F834
:10265000C83085F8392196F8203085F83B3196F856
:10266000221096F8212095F83A3142EA0122A5F885
:102670003C2196F8232096F8241043F0020342EA06
:102680000122A5F83E2185F83A310020EEE400BF92
:10269000D03078080000000000307808682F002053
:1026A000DC2E002095F93930002BBFF6F1AC737F9A
:1026B000172B7FF4EDAC95F8E52095F8E4309B1AE4
:1026C00003F00303022B00F02786082206F1200105
:1026D00005F269102DF0D8F996F8283085F86731A1
:1026E00096F8293085F8683195F8F4203968012387
:1026F00063F3010285F8F4200B7195F8E5300322AD
:10270000023B85F8E53085F8E62006F12A0108222B
:1027100005F1F6002DF0B8F9042206F1320105F1B9
:1027200094002DF0B1F995F86631B5F8C620A5F8FA
:10273000C82043F0010385F86631002096E4737FDA
:10274000032B7FF4A5AC96F820300F2B00F0898581
:1027500040F21683142B00F05782162B7FF4D8AC6E
:1027600095F8BC0195F8BD3183423FF4D1AC96F8A1
:102770002120232A12D095F8603095F8BF1185F8F2
:10278000BD01C3F3020060F306136FF300010020E4
:1027900085F8603085F8BF11A5F8C80095F8BF31FD
:1027A0005C077FF5B5AC1A233277337195F860304A
:1027B000C3F30203737795F86130C3F30203B37771
:1027C000002053E4737F022B7FF462AC95F8E43071
:1027D00095F8E510994204D095F8E610032900F029
:1027E000338495F8BC0195F8BD31834200F0128521
:1027F00096F8202086F82120232ABCD1CEE7737FCB
:10280000022B7FF445AC95F8851195F8842196F854
:102810002030914202D00F2B00F0418395F8AC217B
:1028200095F8AD11914202D0142B00F0828395F8F7
:10283000BC1195F8BD218A4202D0162B00F09E8370
:10284000122B04BF01233371C3E6D5F8C831002B26
:102850007FF453AC0160C5F8C401C5F8C801C5F8E0
:10286000CC0152E4E0B1B9F1020F0CD0B9F10B0F79
:1028700000F09480B9F1030F7FF4E5AB17E7B9F1ED
:10288000020F7FF4DDAB737F022B7FF401AC96F86F
:10289000203085F84331012333710020FFF7E6BB78
:1028A000B9F1070FABD0B9F1020F7FF4CCABEAE777
:1028B00095F8E43095F8E5209A423FF4E9AB95F8B5
:1028C000E620032A7FF4E4AB727F012A7FF4E0ABB9
:1028D00095F93920002AC0F2BC8495F8661185F874
:1028E000E53001F0FE016FF34101002385F8661128
:1028F000A5F8C830C9B24E077FF50CAC3B686FF342
:102900008201172285F8661100201A71FFF7AEBB0D
:10291000737F012B7FF4BCABCE481AF0A7FD0028D3
:1029200000F0F18095F87A3095F86611027903F09D
:10293000EF036FF3C30385F87A3041F001010123FF
:1029400085F866114371D5F8C43142F003020B21BA
:102950000271C171002B00F0958295F866219407F1
:1029600000F1908295F8BF21D10700F18B82D5F854
:10297000D021934200F07F85D5F8C821002A00F0CD
:102980001C85D5F8CC311A6802601860C5F8CC01F6
:102990000368002B7FF4BCABFFF7B8BB737F012B40
:1029A0007FF476AB95F87A306FF3041385F87A30BC
:1029B000FFF7AEBB737F052B7FF46AAB96F8202040
:1029C00096F8211042EA010010F0070440F04C8311
:1029D00095F8BC1195F8BD318B423FF499AB95F851
:1029E000BE3103F00303022B7FF492AB95F8602015
:1029F00095F8BF3185F8BD1164F30003C2F30201FD
:102A000061F3061285F8BF3113F00403A5F8C8403E
:102A100085F860203FF432AB3B681A221A71347794
:102A2000717795F86130C3F30203B3772046FFF75F
:102A30001DBBD5F8C8210B68C5F8D031002A7FF43A
:102A40005CAB036008600168C5F8C801C5F8CC013B
:102A5000FFF75BBB0B7903F00303032B00F00A8243
:102A6000C5F8CC11C5F8C811FFF747BB95F8E4309D
:102A700095F8E5001B1A03F00303022B00F0E38036
:102A800095F8840195F88531984200F0658395F8B2
:102A9000D8309F073FF53CAB314628462A23FFF745
:102AA0009CBB95F9390095F8853195F884210293FE
:102AB0000028C0F2D180934209D095F8862112F007
:102AC000070200F0BB83043A012A40F2B78395F86D
:102AD000E42095F8E500121A02F00302022A00F041
:102AE0006B8595F8BC0195F8BD21904200F0D68425
:102AF00095F8D83098073FF50BAB314628462A2386
:102B00000F22FFF76BBB6FF06800FFF7AFBA95F8C5
:102B1000D8309A073FF5FCAA4E481AF0A7FC0146A8
:102B20000028F0D095F8D82095F8AC4195F8AD0183
:102B3000019442F002028442B5F85A30B5F858E0E8
:102B4000B5F85EA0B5F85CB085F8D82040F00E84EA
:102B5000328C1A2A40F29583B5F8D200824228BFFF
:102B60000246B6F824C0B6F82290F48CBCF11A0FD5
:102B700094BF9C464FF01B0CB9F5A47F184634BF98
:102B800058464FF4A470B4F5A47F34BF54464FF4B4
:102B9000A4749C4500F07783019BA5F8B0C1013B6C
:102BA00085F8AD31A5F8B221A5F8B441A5F8B60174
:102BB00095F8AE31002900F08C83052666F30203F8
:102BC00085F8AE31D5F80831C8F804303B68C3F851
:102BD00000803B68C5F8083100233B6000293FF4C2
:102BE00099AA0B798A8143F0030315220926C8812B
:102BF000A1F808C028464C810B714E71CA7120F0B3
:102C00000DFA0020FFF732BA95F8AC2195F8AD31F6
:102C100093423FF47DAA0023092185F8AD21A5F850
:102C2000C8307177B5F85A20B5F85870B5F85E40DD
:102C3000B5F85C10328415221846B7847484F18488
:102C4000F277FFF713BA95F8E630032B7FF41FAF46
:102C500016E700BF682F0020029B934204D095F82E
:102C6000862193077FF454AAB6F820A0B6F82290E4
:102C70001FFA8AF2052A1FFA89F140F2A081B1F504
:102C8000486F00F29C818A4200F29981B6F8248054
:102C90001FFA88F0B0F5FA7F80F09181B6F826E04F
:102CA0001FFA8EF2A2F10A0C1FFA8CFC40F6764B4A
:102CB000DC4500F2848100FB011CBCEB820F80F03C
:102CC0007E8196F828C06145C0F07981A5F88EE133
:102CD000A5F888A1A5F88A91A5F88C8185F890C1FE
:102CE00096F82A8096F829C0B5F82AE04CEA082C14
:102CF000A5F892C196F82C8096F82BC04CEA082CC7
:102D0000A5F894C196F82E8096F82DC04CEA082CB0
:102D1000A5F896C196F8308096F82FC04CEA082C9A
:102D2000A5F898C196F8328096F831C04CEA082C84
:102D3000A5F89AC196F833C096F834804CEA082C6E
:102D4000A5F89CC196F835C096F836608E454CEAD9
:102D50000626A5F89E6100F0468395F8862103219A
:102D600061F3020285F88621029B5A1E019B85F8B9
:102D70008521002B7FF4CEA925601846FFF776B990
:102D8000032B7FF4C5A995F8E43095F8E5209A4225
:102D90003FF4BEA995F8E620032A7FF4B9A995F877
:102DA000662185F8E53002F0FE026FF34102002350
:102DB00085F86621A5F8C83096F8212086F82020ED
:102DC0000D221846F277FFF751B995F8D88018F020
:102DD00002087FF49DA9DA481AF048FB0146002852
:102DE0003FF491AE95F8D83095F8BE0195F8C04102
:102DF00095F8BDE195F8BC21022767F301003B433C
:102E00007245C4F30207C4F3C20485F8BE0185F815
:102E1000D830F8B25FFA84FC00F0178395F8BE3121
:102E200096F821000A79C3F3820C00EA0C0060F3E3
:102E3000840385F8BE3196F82000DBB200EA531017
:102E400060F3471342F003024FF0030E4FF0170CEC
:102E500085F8BE3128460A710F724C7281F805E080
:102E600081F807C000221FF0B3FD01233371002059
:102E7000FFF7FCB8CB79032B02D00A2B7FF4F0AD1F
:102E80000B68DEE5D5F8C821002A7FF47AAD03602F
:102E9000C5F8C401C5F8C801C5F8CC0178E595F8B6
:102EA000863195F9391043F01003002985F88631F1
:102EB000C0F2958095F80C3195F80D118B420ED02B
:102EC00041F691139F4AA049A04829F0E2FE4040F4
:102ED00080F311884FF0030002DF95F80D1195F88B
:102EE0008631B5F88A0195F80E21A5F8100101394F
:102EF00085F80D110520012160F3020385F81C11EE
:102F00003C6885F8863161F30202C3F3C00363F3C2
:102F1000C302B5F88C6185F80E210020B5F88E212A
:102F2000C5F81801A5F81261A5F814212171FFF761
:102F30009DB895F8AE3185F8AD2143F0080385F8CA
:102F4000AE31FFF746BB7E481AF090FA01460028E2
:102F50003FF4D9AD95F8D820037942F0020285F804
:102F6000D82043F003031322477128460B71CA711E
:102F700020F054F837712046FFF778B895F8BF3144
:102F800095F8602085F8BD1143F008036FF3000346
:102F9000C2F3020161F30612580785F8BF3185F8C4
:102FA000602017D53A6800231A20107171773377A3
:102FB00095F86130C3F30203B377FFF70ABB95F8C6
:102FC000D8309F073FF5A4A8314628461E230F227C
:102FD000FFF704B93B6801221A71FFF7FABA5C4C9B
:102FE00023689D420ED041F6A813564A59495748C6
:102FF00029F04FFE404080F311884FF0030002DFBC
:1030000095F8842195F8863185F8852113F0080319
:103010004FF0000222603A683FF431A816211A23CB
:10302000117133776B8DB5F8C220A98DF38303FB43
:1030300002F27D2303FB02F331844FF47A72B3FB77
:10304000F2F37384FFF7C5BA95F8662185F8E53089
:1030500002F0FE0200236FF3410285F86621A5F815
:10306000C8301846FFF702B8708C6B8EC31A1C0468
:1030700000F14E8195F8E43095F8E5401B1B03F014
:103080000303022B00F03C8195F8BC6195F8BD313B
:10309000B34218D095F8BE3103F00303022B12D1CE
:1030A00095F8BF3195F8E84085F8BD616FF30003EE
:1030B000C3F3800666F34104002685F8BF3185F826
:1030C000E840A5F8C86095F8E830A5F8EA0061F393
:1030D000840362F347136FF30003D5F8082185F8E2
:1030E000E830C8F804203B68C3F800803B68C5F8A6
:1030F000083100233B601EF0A3FB0446002800F0CB
:1031000024812368D5F808215A6095F8E52095F8C0
:10311000E830C5F80841023A062113F01C0F85F883
:10312000E52085F8E6103EF4F5AF95F86020C3F38E
:10313000820363F3061285F860200020FEF796BF35
:10314000682F00209C530300F45303004C4D0300F0
:10315000DC2E00201C54030095F8BE318A4243F057
:10316000030385F8BE3100F0118195F8BE3196F861
:103170002120C3F382010A4062F3840385F8BE3143
:1031800096F82020DBB202EA531262F34713DAB258
:1031900012F01C0F85F8BE3102D012F0E00F07D1FB
:1031A00095F8BE3103F0E3036FF3471385F8BE31A2
:1031B00095F8BF3143F0010385F8BF313B68012228
:1031C0001A710020FEF752BFAF481AF04FF90146BE
:1031D00000283FF498AC95F83A21037942F00102B7
:1031E00085F83A2143F003030C22447103710B2448
:1031F0004FF0FF336FF00E00CA7105224872CB7298
:103200000B730C728A7228461FF008FF012333717A
:10321000FFF721BA95F8851195F8843199423FF46A
:10322000F3AC96F8203086F821302846311D1FF087
:10323000D1FD00287EF46CAFFEF76CBF95F8D83056
:103240009C073EF565AF3146284623230F22FEF743
:10325000C5BF95F8F4306FF3010385F8F430FFF73C
:103260004ABB95F8851195F8843199423EF450AFE8
:103270002846311D1FF0AEFD00287EF449AFFEF751
:1032800049BF72466DE44FF00008019B85F8AD31EF
:103290007245A5F8C8802BD0A5F85E4019B395F803
:1032A000AE71019BA5F8B0C14FF0030E013B6EF368
:1032B000020785F8AD31A5F8B221A5F8B441A5F80B
:1032C000B60185F8AE71A6F820C0B2847484F0848B
:1032D00084E4042666F30203A5F85820A5F85C00F0
:1032E00085F8AE316EE4A5F85820A5F85C00EAE751
:1032F0005845D1D15445CFD13B6801261E716DE4AC
:10330000012333712A2385F843310020FEF7AEBE36
:10331000012333712823F6E795F8D930023285F876
:10332000E52063B141F24573584A5949594829F09B
:10333000B0FC404080F311884FF0030002DF95F8A5
:10334000E63085F8D930FFF7C0B941F25A534F4AF9
:103350005149504829F09DFC404080F311884FF0BE
:10336000030002DFCDE60021FEF762BF95F8AE2133
:1033700002F00702012A3EF656AFFFF7E9BB1D60D7
:10338000FFF7DBB885F88521FFF723B995F8C01161
:1033900095F8BF01C1F30204DBB264F38403C1F307
:1033A000C201013A61F347136FF3820085F8BD2132
:1033B00085F8BE3185F8BF01D7E61A7902F003021D
:1033C000032A34D0C5F8CC31C5F8C831FFF7D9BAD3
:1033D000737F012B7EF45CAE95F93930002BBFF67C
:1033E0009BAAFFF7DFBAA98D81427FF4B6AC40F209
:1033F000E24101FB0EF142F2107000FB0212B5F83F
:10340000C200013AB2FBF1F292B290427FF4A5AC55
:1034100095F88621002185F887113868012102F08E
:10342000F70261F3020285F8862101719CE4DA79E2
:10343000032A01D00A2AC5D11A6802601860C5F8AB
:10344000C801C5F8CC01FFF7A3BA95F8BE3160F307
:10345000840395F8BF016CF34713013A68F38200C7
:10346000B5F8C6C085F8BD2185F8BE3185F8BF0125
:10347000A5F8C8C0D2E4D5F8C8111A68C5F8D0219B
:1034800000297FF47EAAD8E7682F00209C53030010
:103490006C5503004C4D030090550300B6F8209086
:1034A000F38C96F828A0B6F82280B6F824B0ADF8D0
:1034B00016301FFA89FE9AB2BEF1050F1FFA8AF381
:1034C0001FFA88F01FFA8BFC04937FF678ADB0F5F5
:1034D000486F3FF674AD86453FF671ADBCF5FA7F97
:1034E000BFF46DADA2F10A0E1FFA8EFE40F67643D0
:1034F0009E453FF664AD0CFB000EBEEB820FBFF4A1
:103500005EAD049B9842FFF45AADBDF81630A5F8A5
:103510008A81A5F88891A5F88CB1A5F88E3185F837
:1035200090A196F82A9096F829E0B5F82A804EEAFC
:10353000092EA5F892E196F82C9096F82BE04EEA29
:10354000092EA5F894E196F82E9096F82DE04EEA13
:10355000092EA5F896E196F8309096F82FE04EEAFD
:10356000092EA5F898E196F8329096F831E04EEAE7
:10357000092EA5F89AE196F833E096F834904EEAD1
:10358000092EA5F89CE196F835E096F8366080455E
:103590004EEA0626A5F89E6115D0890795F8862182
:1035A0007FF5DDAB3968022060F30202012085F867
:1035B00086210871FFF7D8BB95F8E620032A7FF42F
:1035C00097AAFFF78EBAAE8D6645E6D140F2E24685
:1035D00006FB00F042F2107606FB0202B5F8C2606C
:1035E000013AB2FBF0F292B29642D6D110E700BF98
:1035F0002DE9F04F044690F8E53090F8E40083425E
:103600008FB00D46164614D0C31A03F00303022BE5
:1036100026D094F93920002A3EDB94F8403194F802
:1036200041219B1ADBB2012B51D000200FB0BDE825
:10363000F08F94F93920002AC0F2FE8394F8667165
:1036400017F00108E7D194F80D1194F80CC18C45DE
:1036500000F0DC85831E012284F8E53084F8E62042
:1036600094F8AC3194F8AD219A4207D094F8AE1199
:1036700001F00700021F012A40F2E78394F8E630C8
:10368000013B052B00F2C983DFE813F052021E0252
:103690009801C7035301AF0094F8D9100029BCD09A
:1036A000022900F08D87062900F0F686012900F036
:1036B00007864FF48C63BD4ABD49BE4829F0E9FA3C
:1036C000404080F311884FF0030002DFA5E7BA48BD
:1036D00019F0CCFE90B394F84131013B84F84131AC
:1036E00003790222427143F003030371C271D4F8DB
:1036F000C43194F842210272D4F8C821002B00F0A2
:103700007D8394F866118D0700F1788394F8BF11DA
:10371000C90700F17383D4F8D0118B4201F04983BB
:10372000002A01F0BF84D4F8CC3119680160186018
:103730000368C4F8CC01002B00F0AB83B4F8C800D8
:1037400000287FF472AFB4F8C230012B40F25985E3
:10375000A4F8C83069E7C2F3820384F8BD11990761
:1037600042F13581022363F3840284F8BE2194F888
:10377000BE315A09910742F12081022262F34713B8
:1037800084F8BE3194F8BE2194F86030C2F382010F
:1037900003F007038B4294F8E83014BF61F384030D
:1037A0006FF3840384F8E83094F8613094F8BF1123
:1037B000520903F00703934294F8E83014BF62F310
:1037C00047136FF3471384F8E83094F8E820C1F307
:1037D000800142F0010261F34102831E062184F858
:1037E000E53084F8E82084F8E610E18D628E94F8E4
:1037F000E8300A44324413F0010C97B2194640F005
:103800004B83B4F8EA0094F939203F1A38043FF5A5
:1038100002AF002AC1F2328294F8E42084F8E52055
:1038200094F8617094F86020B4F85E9007F0070097
:1038300013F01C0F02F0070A0A9041F0B680B4F8AA
:103840005C8013F0E00F08D094F861205B0963F30B
:10385000020284F861204FF4A479D4F808B1BBF1D6
:10386000000F01F0BB81DBF80000002801F0B681F9
:1038700094F8602094F861304768C4F80871C2F386
:103880000202C3F302038F075FFA82FC5FFA83FE32
:1038900002D4E24501F0B683218DABF806101A2759
:1038A00000218BF804708BF81C108BF81D208BF80E
:1038B0001E3059461DF096FFD4F80871002F01F014
:1038C000A0813868002801F09C81B4F85C3042681F
:1038D000C4F8082143450AD3B3F5A47F07D8B4F848
:1038E0005E304B4503D3B3F5A47F41F2A183A4F826
:1038F0005C80A4F85E903B7F228DFA8043F0030346
:1039000009227A773B77B4F85A30B4F858103B84E0
:10391000032215233A71B984FB773946A7F8229020
:10392000A7F826801DF05EFF1DF066FF94F9392090
:1039300071E6214819F09AFD00283FF46AAE94F828
:10394000E43084F8E530012302794371D4F8C431BE
:10395000D4F8C87142F0030212210271C171002B28
:1039600000F0638694F86621910700F15E8694F872
:10397000BF21D20700F15986D4F8D021934201F03B
:103980005985002F01F0E785D4F8CC311A68026020
:1039900018600368C4F8CC010BB9C4F8D401B4F8BA
:1039A000C630A4F8C83094F9392034E69C5303009B
:1039B0002C4E03004C4D0300682F002094F8F43087
:1039C00013F0030700F0B28394F93930002BBFF6EF
:1039D00024AE012F7FF460AE544819F047FD07462E
:1039E00000283FF416AE03790D2243F003034FF095
:1039F000040900F108080371427180F807900C2156
:103A0000404621F0EFFF4146082204F1FE002CF071
:103A10003BF84A4607F1100104F198002CF034F805
:103A2000D4F8C431002B01F0B78394F86611D4F8B0
:103A3000C821880701F1B28394F8BF11C90701F1C9
:103A4000AD83D4F8D0118B4201F00187002A01F038
:103A5000A887D4F8CC311A683A601F60C4F8CC71DA
:103A60003B68002B01F082851DF0EAFE0746002826
:103A70003FF4CFAD3B7F228DFA8043F00303032256
:103A800017213B773A71FA777977082204F26911A6
:103A900007F120002BF0F8FF94F8673187F8283001
:103AA00094F8683187F82930394638681DF09AFE55
:103AB0001DF0A2FE94F8F43094F93920022161F34C
:103AC000010384F8F430A6E5E18D638E94F8E820D4
:103AD0000B44334412F001019FB240F0DC82B4F891
:103AE000EE3094F93920FB1A1F043FF594AD002AFB
:103AF000C1F2BB8094F8E43084F8E53004F1340777
:103B0000052204F1E90138462BF0BEFF38460521B5
:103B100019F076FE94F83920012360F3050284F849
:103B2000392084F8D83152B275E500BF682F0020E3
:103B3000DFF86C84D8F80030002B00F05F83E18D53
:103B4000638E94F80E210B44334412F007019FB2A8
:103B500040F02A82B4F8E83094F93920FF1ABFB255
:103B60003B043FF558AD002AC0F2F98694F8E430E2
:103B700084F8E53094F8842194F8853194F80C1198
:103B800084F80D1193420AD094F8863103F00703AC
:103B9000052B04D1002384F88521A4F8C830D8F877
:103BA00000309C4204BF0023C8F80030D4F80881DC
:103BB000B8F1000F00F09085D8F80000002800F060
:103BC0008B85B4F81031628D4168C4F808119A42AF
:103BD000B4F812C1B4F814E100F0F186228DA8F80F
:103BE000062016210022A8F81E30A8F820C0A8F848
:103BF00022E088F8041088F81C2041461DF0F2FDF0
:103C00001DF0FAFDA368002B09DAE268616823F071
:103C100000438A422CBFAD186D18A360ED1A638D66
:103C2000B4F8108113FB07F39BB2B3FBF8F11FFA52
:103C300081F918FB09F292B2934280F03B85D31AC6
:103C4000CB4840F2E24202FB03F3A3FB0001C6A310
:103C5000D3E90023FDF7B6F920F07F400544E38D5A
:103C600094F939203344DB1B4B4440F2E24A002AEA
:103C7000E3850AFB08F8C0F27B8640F6C523BD4AFF
:103C8000BD49BE4829F005F8404080F311884FF047
:103C9000030002DF00230D934646B4F81421B4F864
:103CA0001211B74BB748A18542F2107707FB028289
:103CB00043444044B3FBF8F38F1D013AB2FBF8F2E2
:103CC000B0FBF8F898B2A4F8C220B842B4F81021BA
:103CD000A4F8CE00A4F8C680628504DDC1F57F4358
:103CE000FA33184480B294F80E31A4F8CA001F07C2
:103CF00044BF0023A4F8C4300221012024F08EFD2B
:103D0000002202218346012019F056FC4FF4F07284
:103D10009D49204619F0E0FB05305FFA80FA9B4B85
:103D200000945246012100201AF072FF30F0020385
:103D30000CD040F6F5238F4A9549904828F0A9FF0A
:103D4000404080F311884FF0030002DF884BA6FB50
:103D50000367304684A3D3E900233946FDF732F9DF
:103D60008C4A08948046072320F07F40002103FB03
:103D700000F302FB0133A0FB0212CDE90A121A4440
:103D80000B92DDE90A012369DFF818C20694301AA4
:103D900067EB010104934FF47A7200237E4ECDF855
:103DA0001CC04FF6FE7405960394FDF70BF928F03E
:103DB0007F43CDE901300D9B009352462B460121F4
:103DC00000201AF09DFE30F002030CD040F60F33B5
:103DD000684A6F49694828F05CFF404080F31188C9
:103DE0004FF0030002DFBBF1000F04D001221046A8
:103DF000022119F0E1FB6FF08B0017E4002A00F0BC
:103E00000984D4F8CC311A68026018600368C4F8D9
:103E1000CC01002B7FF492AC3BE040F22F43554A9B
:103E20005549564828F035FF404080F311884FF03F
:103E3000030002DFFFF7EDBB94F8D91000293FF42F
:103E4000FDAB00293FF4E9AB2AE4C1F302085FFAB5
:103E500088F7072F0ED04FF0010909FA07F212F088
:103E60004E0C7FF40BAC12F0300F40F04E87002F59
:103E700001F0078240F6F1633E4A3F493F4828F08F
:103E800008FF404080F311884FF0030002DFFFF786
:103E9000F5BBC4F8D40151E402201DF0B3FC824606
:103EA00000283FF4B6AB3D4819F0E0FA8046002800
:103EB0003FF4AFAB94F8E8206FF30002D3B2C3F342
:103EC000820959EA531984F8E82041F0808194F876
:103ED000E420A4F8EA90990784F8E52001F16E82C5
:103EE0004B464946052288F8052088F8089088F84E
:103EF000093098F80420D4F8C431A8F80A1042F028
:103F000003021820D4F8C81188F8042088F80700A4
:103F1000002B00F0608794F86621920700F15B8720
:103F200094F8BF21D70700F15687D4F8D0219342E7
:103F300001F09183002901F00784D4F8CC311A688C
:103F4000C8F80020C3F80080D8F80030C4F8CC814D
:103F500094F93920002B7FF45EABC4F8D481FFF7CD
:103F60005ABB00BFAFF300808D49FD1A0700000067
:103F700000CA9A3B9C5303002C4E03004C4D030097
:103F80007FC3C901FF596202701A00203D2D020053
:103F90003C5503008D49FD1A69430200682F00203B
:103FA000DC2E0020E52C020001201DF02BFC8146B8
:103FB00000283FF42EABC04819F058FA804600287C
:103FC0003FF427AB1DF03CFCD9F8002098F80430F2
:103FD000D4F80811516043F003030C22C4F808918F
:103FE00088F8052088F80430A38DD4F81821B34947
:103FF00094F80E0106333B44002788F80770A1FBB4
:104000000212C2F38F2294F81C1188F80810D4F819
:10401000C411A8F80920B4F81021A8F80B20B4F8AE
:104020001221A8F80D209BB2B4F81421A8F80F2093
:1040300067F30200A4F8E83084F80E01A8F8113004
:10404000002900F0538694F86631980700F14E86F7
:1040500094F8BF31DA0700F14986D4F8D03199429B
:1040600001F0A882D4F8C831002B01F00683D4F8FF
:10407000CC311A68C8F80020C3F80080D8F80010C6
:10408000C4F8CC8100297FF4C4AAC4F8D48194F97F
:104090003920FFF7C0BA884819F0E8F980460028AF
:1040A0003FF4B7AAA38D027994F8E81006333B4495
:1040B000A4F8EE306FF30001012342F00302082060
:1040C00084F8E81088F8042088F8050088F807309C
:1040D000052204F1E90140442BF0D6FCD4F8C431A8
:1040E000B4F8EE20A8F80D20002B00F0E18594F83C
:1040F0006611D4F8C821880700F1DC8594F8BF1157
:10410000C90700F1D785D4F8D0118B4201F0408265
:10411000002A7FF412AF1A7902F00302032A01F099
:10412000C684C4F8CC31C4F8C83106E7624819F037
:104130009DF9804600283FF46CAA94F93930002B91
:1041400000F1040980F2648694F87A301A0701F1CC
:104150006F8094F8F570002F01F07B81037994F85B
:10416000D82043F003030371D30741F14F8004F5D6
:104170009473D3E90023002102F0040050EA010304
:1041800001F044801122032388F8097088F8072081
:1041900088F8083088F80530D4F8C431D4F8C8213C
:1041A000002184F8F510002B01F0048094F86611CA
:1041B000880700F1FF8794F8BF11C90700F1FA875B
:1041C000D4F8D0118B4201F00983002A01F05C84FD
:1041D000D4F8CC311A68C8F80020C3F80080C4F8BD
:1041E000CC81D8F800300BB9C4F8D48194F8E4300D
:1041F00084F8E53094F93920FFF70DBAC8F800408B
:104200009DE40133A4F8C830FFF710BA94F821C137
:1042100094F820E1F44500F01482ACEB0E0C1CF095
:10422000010F3FF4F8A994F8D83013F0010900F019
:1042300061861DF005FB0746B8B394F8203184F879
:104240002131037F228DC28043F003030922032022
:1042500041463B7738717A77FA7707F120000822D8
:104260002BF03FFCD4F83021D4F8343187F82430D7
:10427000100C190C4FEA102CC3F3072387F823C046
:1042800087F82200C2F3072C080A87F8261087F85F
:10429000202087F821C087F8270087F82530394685
:1042A00008681DF09FFA1DF0A7FA94F8E40094F84E
:1042B000E530FFF7A9B900BF682F00205917B7D123
:1042C000DFF87C84D8F80030002B00F04583638E43
:1042D000E18D94F80E210B44334412F007029FB293
:1042E00040F08982B4F8E830FF1ABFB23B043FF5D2
:1042F00094A994F8841194F8853194F80C0184F809
:10430000D9208B4284F80D0109D094F8863103F04E
:104310000703052B04BF84F88511A4F8C820D8F83A
:1043200000309C4204BF0023C8F80030D4F8088154
:10433000B8F1000F00F05D83D8F80000002800F00D
:104340005883B4F81031618D4268C4F8082199424D
:10435000B4F81221B4F814C100F06C84218DA8F8CF
:1043600006104FF0160E0021A8F81E30A8F82020E5
:10437000A8F822C088F804E088F81C1041461DF017
:1043800031FA1DF039FAA368002B09DAE268616896
:1043900023F000438A422CBFAD186D18A360ED1ABC
:1043A000638DB4F8108113FB07F39BB2B3FBF8F1F4
:1043B0001FFA81F918FB09F292B2934280F09D81B5
:1043C000D31AD94840F2E24202FB03F3A3FB0001F7
:1043D000D3A3D3E90023FCF7F5FD20F07F4005448B
:1043E000E38D94F939203344DB1B4B4440F2E24A1D
:1043F000002AE3850AFB08F8BFF63FACA26C236CE9
:10440000C94E03FB1727A76421F0EAFD074694F87D
:10441000D800C0F3C20021F0E5FD3B1808FB03F310
:1044200003F57423C14FA26C94F81C1103F23F23CF
:10443000A7FB03039F0C07FB09F04FEA5803024454
:10444000963B9A420AFB01FC28BF1A464FF0000E29
:10445000C4E91132A0FB0601B1A3D3E90023C4F8DB
:1044600050C0C4F8E0E02764FCF7ACFDB04AD4F8D3
:104470001831A2FB03239B0A0AFB03FA2D1AA8A3F7
:10448000D3E90023AAFB0601FCF79CFD20F07F4343
:10449000A8EB07060D9300E4E18D628E94F8E830F6
:1044A0000A44164413F00100B6B2194640F04A819E
:1044B000B4F8EA20B61A35043FF5AFA894F86020A6
:1044C00094F8618084F8D90013F01C0F02F00709FA
:1044D00008F00708B4F85E7040F0A383B4F85C609D
:1044E00013F0E00F08D094F861205B0963F3020237
:1044F00084F861204FF4A477D4F80851002D00F01F
:10450000C6832868002800F0C28394F861C094F83C
:1045100060204368C4F80831C2F30202CCF30203FE
:1045200089075FFA82FC5FFA83FE02D4E14500F05E
:104530009C85218DE9804FF01A0C002129776A773C
:10454000AB7785F804C029461DF04CF9D4F8085122
:10455000002D00F0BC832868002800F0B883B4F870
:104560005C304268C4F80821B3420AD3B3F5A47F93
:1045700007D8B4F85E30BB4203D3B3F5A47F40F252
:104580008885A4F85C60A4F85E702B7F228DEA8099
:1045900043F0030309226A772B77B4F85A30B4F852
:1045A00058102B8403221523A9842A71EB772946FE
:1045B0006F84EE841DF016F91DF01EF9FFF72DB87B
:1045C000638EE18D94F8E8200B441E4412F0010242
:1045D000B6B240F07981B4F8EE30F61A31043FF506
:1045E0001CA804F1340584F8D92004F1E90105225E
:1045F00028462BF049FA2846052119F001F994F8CC
:104600003930012260F3050384F8393084F8D82169
:10461000FFF703B80360C4F8C401C4F8C801C4F8C4
:10462000CC01002B7FF48AA833E4002F7FF4ACA9DF
:104630000360C4F8C401C4F8C801C4F8CC01FFF792
:10464000ABB994F839C194F838E1F44500F0E18150
:10465000ACEB0E0C1CF0010F3EF4DDAF94F83A31D8
:1046600013F0010700F07386980740F14E861DF0A5
:10467000E7F8014600283FF418AE94F8383184F882
:104680003931037F228DC28043F003030B7703206F
:1046900006220C234A77CB77087194F83B01B4F8D3
:1046A0003C21B4F83E31A1F8233081F82000A1F874
:1046B0002120F5E508FB113340F2E2429BB21A4893
:1046C00002FB03F3A3FB000115A3D3E90023FCF7CE
:1046D00079FC2D1AFFF7C3BA40F64923154A16494B
:1046E000164828F0D6FA404080F311884FF00300B6
:1046F00002DFD8F80000FFF764BA08FB113340F27C
:10470000E2429BB2084802FB03F3A3FB000104A3AF
:10471000D3E90023FCF756FC2D1A61E6AFF30080C5
:104720008D49FD1A0700000000CA9A3B83DE1B4337
:104730005917B7D19C530300285503004C4D030073
:10474000DC2E002002201DF05DF8804600283EF49B
:1047500064AFC24818F08AFE054600283EF45DAFFB
:1047600094F8E8206FF30002D3B2C3F3820757EA4C
:10477000531784F8E82040F0CB8594F8E420A4F89F
:10478000EA709B0784F8E52000F1B4863B46394681
:1047900005226A712F726B722A79D4F8C43169814B
:1047A00042F003021820D4F8C8112A71E871002BD6
:1047B00000F0578494F86621970700F1528494F82A
:1047C000BF21D60700F14D84D4F8D021934200F0E8
:1047D000C987002901F02D80D4F8CC311A682A60ED
:1047E0001D602B68C4F8CC51002B7EF416AFC4F8C2
:1047F000D451FEF712BF01201DF004F80646002830
:104800003EF40BAF954818F031FE054600283EF403
:1048100004AF1DF015F83268D4F808112B795160F7
:104820000C22C4F808616A71D4F818218C4994F8F4
:104830000E0143F003032B710026A38DEE71A1FB43
:104840000212C2F38F2294F81C1129720633D4F895
:10485000C411A5F80920B4F81021A5F80B203B4499
:10486000B4F81221A5F80D209BB2B4F81421A5F8D4
:104870000F2066F30200A4F8E83084F80E01A5F8D2
:104880001130002900F0AB8294F86631980700F1EE
:10489000A68294F8BF31DA0700F1A182D4F8D031B2
:1048A000994200F0B586D4F8C831002B00F0698732
:1048B000D4F8CC311A682A601D602968C4F8CC513C
:1048C00000297EF4AAAE92E7644818F0CFFD0546B1
:1048D00000283EF4A2AEA28D037994F8E8100632C7
:1048E00043F0030316446FF300010820012284F80B
:1048F000E810A4F8EE6004F1E9012B716871EA7127
:10490000281805222BF0C0F8D4F8C431B4F8EE20F2
:10491000A5F80D20002B00F03F8294F86611D4F822
:10492000C8218E0700F13A8294F8BF11C80700F140
:104930003582D4F8D0118B4200F07E86002A7FF4B5
:104940004BAF1A7902F00302032A01F02280C4F867
:10495000CC31C4F8C8313FE7C8F80040B7E494F858
:10496000D930002B3FF402A984F8D910FFF702B91F
:10497000A26C236C3B4E03FB1727A76421F030FB8E
:10498000074694F8D800C0F3C20021F02BFB3B1877
:1049900008FB03F303F574233348A26C94F81C114D
:1049A00003F23F23A0FB030344E5C3F3820060F35B
:1049B000020284F860204FF4A478FEF742BFA18D74
:1049C00061457FF40BA940F2E24909FB02F942F28A
:1049D000107202FB0E92B4F8C210013AB2FBF9F267
:1049E00092B291427FF4FAA8012388F80430FFF7CD
:1049F00004B940F649231D4A1D491E4828F049F9CB
:104A0000404080F311884FF0030002DFD8F8000027
:104A100097E494F885E194F884C1E64500F0C982F2
:104A2000DFF85480D8F800C0BCF1000F00F0EC842F
:104A300064457EF4F0AD94F886C10CF0070CBCF12F
:104A4000050F00F2CB85DFE80CF081411903030369
:104A5000024618461346FEF7D7BD00BF682F002058
:104A60005917B7D100CA9A3B83DE1B439C530300FE
:104A7000285503004C4D0300DC2E0020B9073EF5FD
:104A8000CAAD1CF0DDFE014600283FF40EAC94F8E0
:104A900086010B7F032262F30200134384F8860130
:104AA000208D0B7718234B77B4F88A31B4F88871CE
:104AB0000A71C880B4F88E21B4F88C014B840F239E
:104AC0000F848884CA84CB77FFF7EABB94F8877198
:104AD000002F40F0CA86002AC0F28C8794F88631F5
:104AE00094F89001C4F81871052262F302030122C0
:104AF00084F81C2184F88631B4F88A2150B192FBE5
:104B0000F0F313FB00F3B4F888019BB29842A4F8C9
:104B1000103101D9A4F8102194F80E31B4F88C01A9
:104B200094F88621A4F812010220C2F3C00260F3B7
:104B3000020362F3C3030139B4F88E2184F80D1126
:104B400084F80E31A4F81421FEF767BDAC48678ED7
:104B5000B4F82E9018F08AFC014600283FF4A5AB6B
:104B60000379C8F8004043F003031822427103712F
:104B7000B4F88831B4F88CC1002207EB0900B4F80E
:104B80008A710B81B4F88E310A744F813044B4F8C5
:104B9000C670A1F80CC0CB814FF00F0C4FF0FF3363
:104BA000CA740A754B758B75CB750B764B768B7605
:104BB000CB760B774B778B7781F807C0A4F8C8705A
:104BC000A1F8110094F88631042060F3020384F800
:104BD000863120461DF0FCFEFFF767BB41F2020361
:104BE000884A8949894828F054F8404080F3118860
:104BF0004FF0030002DFDBF8000094F8E810FEF746
:104C000037BE41F22E037F4A7F49804828F041F8A1
:104C1000404080F311884FF0030002DF3868FEF750
:104C200054BEC3F3820060F3020284F860204FF4A4
:104C3000A47655E4B4F82CE096457FF48FAB40F2AF
:104C4000E24909FB01F942F2107101FB0C91B4F841
:104C5000C2E00139B1FBF9F189B28E457FF47EAB38
:104C6000012388F80430FFF789BB94F8D930002B72
:104C70003EF440AF84F8D910FEF740BF94F8D92035
:104C8000002A3EF4C9AD84F8D9C0FEF7C9BD41F28F
:104C900002035C4A5C495D4827F0FBFF404080F31B
:104CA00011884FF0030002DF286894F8E8102CE424
:104CB000D4F8C821002A7FF440A9C8F80030C4F80D
:104CC000C481C4F8C881C4F8CC81FFF741B941F26E
:104CD0002E034C4A4C494D4827F0DBFF404080F3FF
:104CE00011884FF0030002DF286838E4D4F8C83197
:104CF000002B7FF4BCA9C8F80010C4F8C481C4F824
:104D0000C881C4F8CC81FFF7BDB9B4F8B071B4F86C
:104D1000B421A4F85A700428A4F85E20B4F8B28133
:104D2000B4F8B67100F0E782062363F3020184F859
:104D3000AE11D4F80891B9F1000F00F01A82D9F839
:104D40000000002800F0158299F81C304268C4F871
:104D5000082143F003030921228D89F81C3089F8CA
:104D60001D10B4F85A30B4F85E10A9F80620A9F85E
:104D7000203003221523A9F8221089F8042089F88D
:104D80001F304946A9F82480A9F826701CF02AFD96
:104D90001CF032FDFEF772BCD4F8C821002A7FF463
:104DA0001BAD2B60C4F8C451C4F8C851C4F8CC5131
:104DB0001AE51968C4F8D011002A7EF4B4AC016079
:104DC00018600368C4F8C801C4F8CC01002B7EF455
:104DD000B5ACFFF75EB800297FF4AFA86DE7D4F853
:104DE000C831002B7FF464AD2960C4F8C451C4F805
:104DF000C851C4F8CC5100297EF40FACF7E400BFD1
:104E0000682F00209C530300285503004C4D0300DD
:104E100004F17B0A53463A4604F1F60104F271109C
:104E200023F000F85146102204F19C002AF02CFED9
:104E3000082204F1940104F1B5002AF025FE94F84B
:104E4000930094F8B42094F87A3084F88B7043F08F
:104E5000080367F3000042F0010284F8930084F82D
:104E60007A3084F88C7084F88D7084F88E7084F8B1
:104E70008F7084F8907084F8917084F89270C4F800
:104E8000AC704946C4F8B07084F8B42020461EF0D7
:104E9000B3F8D4F8C431002B00F0D58094F8661133
:104EA000D4F8C821880700F1D08094F8BF11C90751
:104EB00000F1CB80D4F8D0118B4200F07D84002A21
:104EC00000F0AB84D4F8CC311A68C8F80020C3F8DD
:104ED0000080D8F80030C4F8CC81002B00F0598154
:104EE00094F8F43094F9392043F0030384F8F43053
:104EF000FEF791BBC94818F0B9FA074600283FF4FD
:104F0000D4A994F821310922013B84F8213142715E
:104F100094F939200379002AB4BF0E22082243F005
:104F20000303C27108220371494610442AF0D9FDD7
:104F3000D4F82821D4F82C313B73100C190C4FEA0B
:104F4000102CC3F3072387F80BC0B872C2F3072CE9
:104F5000080A3A7287F809C0B973F8737B73D4F8FA
:104F6000C431002B00F0A98094F86611D4F8C82150
:104F7000880700F1A48094F8BF11C90700F19F8051
:104F8000D4F8D0118B4200F00884002A00F08E84FF
:104F9000D4F8CC311A683A601F603B68C4F8CC7111
:104FA000002B00F0CD82B4F8C630A4F8C830FFF76B
:104FB0007CB994F8AC1194F8AD718F4200F08A80FE
:104FC00094F8AE3103F0070007280CD00127874082
:104FD00017F04E0F7EF41FAB17F0300F40F05983DF
:104FE000002800F06E8440F6F1638D4A8D498E48AA
:104FF00027F04FFE404080F311884FF0030002DF9E
:10500000FFF753B90A9971457EF446AC01238BF83A
:10501000043059461CF0E6FBD4F80871002F00F06C
:10502000E0823868002800F0DC824368C4F8083168
:1050300001233B7139461CF0D5FB1CF0DDFB94F9D4
:105040003920FEF7E8BAD4F8C821002A7FF43AAF35
:10505000C8F80030C4F8C481C4F8C881C4F8CC8151
:105060003BE700297FF4B8AB9BE6F0457FF461AAEB
:1050700001232B7129461CF0B5FBD4F80851002DF3
:1050800000F048832868002800F044834368C4F88F
:10509000083101232B7129461CF0A4FB1CF0ACFB4A
:1050A000FEF7BBBA1A79196802F00302032A00F06E
:1050B0004A82C4F8C831FEF739BBD4F8C821002AA7
:1050C0007FF466AF3B60C4F8C471C4F8C871C4F81B
:1050D000CC7165E794F8BC1194F8BD718F423EF431
:1050E0009AAA94F8BE2102F00307032F00F221834D
:1050F0000FF2040C5CF827F009510000514A00003F
:10510000514A000057370000444818F0AFF90146F3
:1051100000283FF4CAA894F8BE7194F8BF0194F82F
:10512000C02194F860E0012363F30107FBB2C3F3ED
:10513000820CC0F34000C3F3421360F3C30E6CF360
:105140000202087984F8BE7163F3C50284F8C021B5
:1051500040F003001622032784F860E0CA7181F84A
:1051600008C04B7208714F71002220461DF030FCC0
:1051700019E740F6C9632A4A2C492B4827F089FDD4
:10518000404080F311884FF0030002DFD9F800009F
:10519000DAE5C4F8D481A3E6D4F8C821002A7EF465
:1051A00058AC3B60C4F8C471C4F8C871C4F8CC7181
:1051B000FEF756BC002A7FF40BA8C8F80030C4F8EC
:1051C000C481C4F8C881C4F8CC81FFF70AB8A28DA5
:1051D00006323A44A4F8EA201CF032FBDAF8003038
:1051E000D4F808215A60C4F808A11CF029FB036810
:1051F000D4F808215A6094F8E830C4F80801C3F3E1
:105200008209B4F8EA105B09FEF76CBE0D2388F83A
:10521000073088F808700223FEF7BCBF682F002013
:105220009C5303002C4E03004C4D030028550300F3
:10523000494620461DF0E0FED4F8C431002B00F0B2
:10524000AF8094F86621970700F1AA8094F8BF21F7
:10525000D00700F1A580D4F8D021D4F8C81193422A
:1052600000F05084002900F04284D4F8CC311A6850
:10527000C8F80020C3F80080C4F8CC81D8F800300A
:105280002BE6DF4818F0F2F800283EF4F7A9B4F84E
:10529000B631B4F8B2C1A4F8D2C0A4F8D43094F8AE
:1052A000AE11037969F3020143F0030384F8AE11F0
:1052B0004FF0090E48F01B0180F8098003713A464F
:1052C00048F04803142748EA09080172837283737F
:1052D000A0F80CC080F805E0C77180F80B8080F85A
:1052E0000F80014620461DF073FBB4F8C630A4F8C9
:1052F000C830FEF7C3B9B4F8B821002A40F03A81AB
:1053000084F8AD31A4F8C82013E540F6C2436CE63A
:10531000A38D06331E44A4F8EA601CF091FAD8F875
:105320000030D4F808215A60C4F808811CF088FACB
:105330000368D4F808215A6094F8E830C4F80801EA
:10534000C3F38207B4F8EA105B09FFF721BAAC484F
:1053500018F08CF800283EF4A8AF94F8393194F88E
:105360003A11013B84F83931037941F0010143F0EE
:10537000030384F83A110C2103710B234FF0060C40
:105380003A46C1716FF00E07052103724FF0FF33EB
:10539000817280F805C04772C37203730146E4E668
:1053A000D4F8C821002A7FF460AFC8F80030C4F8F0
:1053B000C481C4F8C881C4F8CC815FE71CF040FA0E
:1053C000228D8AF81C9094F86030AAF80620C3F366
:1053D00002038AF81D3094F86130DAF80000C3F354
:1053E00002031A228AF81E3051468AF804201CF063
:1053F000F9F91CF001FA94F8E830B4F8EA10C3F3B4
:1054000082095B09FEF76EBD94F8863103F007034D
:10541000052B00F2E38001A050F823F04D4B000073
:10542000CD4A00007D4A0000173600001736000004
:10543000173600001A68C4F8D021002F7EF4A4AA01
:10544000026018600368C4F8C801C4F8CC01FEF714
:10545000A3BA04F17B094B463A4604F1F60104F283
:10546000711022F0DFFC4946102204F19C002AF062
:105470000BFB04F19401082204F1B5002AF004FBAF
:1054800098F8043094F8932094F8B40094F87A10C3
:1054900084F88B7067F3000042F0010241F00801CC
:1054A00043F003034FF0010E4FF0050C84F89320F6
:1054B00084F8B40084F87A1084F88C7084F88D70C5
:1054C00084F88E7084F88F7084F8907084F89170EE
:1054D00084F89270C4F8AC70C4F8B0703A46414693
:1054E00088F8043088F805E088F807C020461DF0E9
:1054F0006FFAF5E41CF0A4F9228D88F81C7094F87A
:105500006030A8F80620C3F3020388F81D3094F831
:105510006130D8F80000C3F302031A2288F81E3065
:10552000414688F804201CF05DF91CF065F994F8F8
:10553000E830B4F8EA10C3F382075B09FFF728B933
:10554000C4F8D4712FE5DA79032A3FF438AC0A2A7B
:105550007FF4AFAD33E419791A6801F00301032930
:1055600000F0EA80C4F8C831FEF711BAC4F8D4716B
:10557000FEF77ABA6CF30201B4F8BA3184F8AE11CE
:10558000A4F8B221A4F8B8C1A4F8B631FFF7D1BB92
:105590001968C4F8D011002A7EF4CFACC8F8001006
:1055A000C3F80080D8F80030C4F8C881C4F8CC81B2
:1055B000FEF7CEBCD4F8C8210B68C4F8D031002A5D
:1055C0007EF455ADC8F80030C1F80080D8F800105E
:1055D000C4F8C881C4F8CC81FEF754BD40F6F55339
:1055E00003E541F21103074A0749084827F051FB38
:1055F000404080F311884FF0030002DF386814E563
:10560000682F00209C530300285503004C4D0300D5
:10561000D4F8C8210B68C4F8D031002A7FF448A917
:105620002B600D602968C4F8C851C4F8CC5100291A
:105630007DF4F3AFFFF7DBB81968C4F8D011002A86
:105640007FF4CAA829601D602B68C4F8C851C4F84B
:10565000CC51FFF7C9B81A68C4F8D02100297EF4EC
:105660006CACC8F80020C3F80080D8F80030C4F84B
:10567000C881C4F8CC81FEF76BBC0B7903F003033F
:10568000032B00F06B81C4F8CC11C4F8C811FEF7ED
:10569000EEBC03F00703B4F8B001B4F8B421A4F8E9
:1056A0005A00042BA4F85E20B4F8B291B4F8B68185
:1056B00000F0F58194F8AE31062262F3020384F81B
:1056C000AE31D4F80871002F00F0988038680028B7
:1056D00000F094803B7F4268C4F8082143F0030344
:1056E0000921228D3B777977B4F85A30B4F85E10EF
:1056F000FA803B840322152379843A71FB7739467B
:10570000A7F82490A7F826801CF06CF81CF074F819
:10571000FEF7CBBD41F21103B24AB349B34827F0BB
:10572000B8FA404080F311884FF0030002DF286888
:10573000ACE440F66C7358E4D97903293FF480AEA9
:105740000A297FF40FAF7BE61A7902F00302032ADD
:105750007EF4E7ACDA79032A02D00A2A7EF4E1ACBF
:105760001A687EE71A68C4F8D02100297FF434A8AB
:105770002A601D602B68C4F8C851C4F8CC51FFF7EB
:1057800033B80B7903F00303032B00F0CB81C4F88B
:10579000CC11C4F8C811FFF78BB81968C4F8D01140
:1057A000002A7FF4F5AB39601F603B68C4F8C8710C
:1057B000C4F8CC71FFF7F4BB1968C4F8D011002A03
:1057C0007FF480ABC8F80010C3F80080D8F8003030
:1057D000C4F8C881C4F8CC81FFF77FBB1968C4F84E
:1057E000D011002A7EF4F4ACC8F80010C3F8008091
:1057F000C4F8C881C4F8CC81FEF7F3BC40F6C96395
:10580000784A7949794827F044FA404080F3118872
:105810004FF0030002DF38685CE71A7902F00302F8
:10582000032A00F04C81C4F8CC31C4F8C831FFF72A
:1058300049BB1A7902F00302032A7FF488A8DA79B7
:10584000032A02D00A2A7FF482A81A6890E719680E
:10585000C4F8D011002A7EF4FCA839601F60C4F897
:10586000C871C4F8CC71FEF7FBB8614817F0FEFDB3
:10587000014600283EF419AD037943F003030B7190
:10588000112003220F23C8714A710B7294F88731DB
:105890004B72002220461DF09BF894F8843184F866
:1058A00085310023C8F80030FEF7FFBC1A7902F0FA
:1058B0000302032A5AD0C4F8CC31C4F8C831FFF728
:1058C00067BB4B4817F0D2FD00283EF4EEAC94F8CD
:1058D000AE31B4F8B271B4F8B621A4F8D270012197
:1058E000A4F8D42061F30203092284F8AE31427196
:1058F0000279D4F8C431878142F003024FF0140CCE
:10590000C172C173002702711B21482280F807C0B1
:1059100047720172827282737BB394F86621920798
:105920002BD494F8BF21D70727D4D4F8D0219342A1
:1059300000F02281D4F8C821002A00F01381D4F8A5
:10594000CC311A6802601860C4F8CC010368002BDF
:105950007FF429ABC4F8D401FFF725BBCB79032B27
:1059600002D00A2B7FF48FAE0B682BE6DA79032A7C
:1059700001D00A2A9FD1196815E7D4F8C821002A56
:10598000DDD10360C4F8C401C4F8C801C4F8CC0177
:10599000DCE7DA79032A02D00A2A7EF4D8AF196844
:1059A00050E61A7902F00302032A00F0FB80C4F8E3
:1059B000CC31C4F8C831FEF74CB8D70740F1FA80B3
:1059C000012262F3471384F8BE31FDF7DBBEDF0727
:1059D00040F1B080012363F3840284F8BE21FDF717
:1059E000C6BE00BF9C530300285503004C4D030066
:1059F000682F0020744817F039FD014600283EF456
:105A000054AC0379182243F0030303714271B4F8D4
:105A10008821B4F88A31B4F88C010A81B4F88E2157
:105A20004B8110238881CA81CB7194F890310B741B
:105A3000B4F89231B4F89401B4F89621A1F8113079
:105A4000B4F89831A1F81300B4F89A01A1F8152020
:105A5000B4F89C21A1F81730B4F89E31A1F81D309C
:105A6000A1F81900A1F81B2020463A461CF0B0FF0F
:105A700094F8843184F88531C8F8007094F8E40013
:105A800094F8E530FDF7C0BD1A7902F00302032A4D
:105A90005AD0C4F8CC31C4F8C831FEF799BBB4F879
:105AA000B831A3B984F8AD11A4F8C83009E6DA79A1
:105AB000032A02D00A2A7EF434AB19686EE5DA793B
:105AC000032A02D00A2A7FF4AEAE19687AE694F867
:105AD000AE21A4F8B2310023B4F8BA11A4F8B83159
